:020000040800F2
:10000000A83F0020490200085B2800084B27000891
:1000100059280008DD0A00081D350008000000000E
:10002000000000000000000000000000B101000816
:10003000ED0C000800000000F5010008593100082F
:1000400063020008630200086302000863020008FC
:1000500063020008630200086302000863020008EC
:1000600063020008630200086302000863020008DC
:1000700063020008630200086302000863020008CC
:1000800063020008630200086302000863020008BC
:1000900063020008630200086302000863020008AC
:1000A00063020008F53100086302000863020008DB
:1000B000630200086302000863020008630200088C
:1000C000630200086302000863020008630200087C
:1000D00063020008F93400080535000811350008EE
:1000E000EF0C0008630200086302000800F002F849
:1000F00000F04EF80AA090E8000C82448344AAF174
:100100000107DA4501D100F043F8AFF2090EBAE871
:100110000F0013F0010F18BFFB1A43F0010318473B
:10012000A8650000C8650000103A24BF78C878C1EF
:10013000FAD8520724BF30C830C144BF04680C60ED
:10014000704700000023002400250026103A28BF35
:1001500078C1FBD8520728BF30C148BF0B60704739
:10016000642900F01F81752900F01C81732900F0BB
:100170002A83002070471FB500F0E2FB0400002036
:10018000002105F003FE401C60601FBD10B510BDCE
:1001900000F0B1FB1146FFF7EEFF03F005FC00F0A5
:1001A000E1FB03B4FFF7F2FF03BC00F025FC000005
:1001B000224B19680868B0E8F00F80F30988BFF394
:1001C0006F8F4FF0000080F311884EF00D0E7047D6
:1001D0000000000006480068006880F3088862B6E6
:1001E00061B6BFF34F8FBFF36F8F00DF00BF00BF5B
:1001F00008ED00E0EFF30980BFF36F8F0F4B1A6833
:1002000020E9F00F106008B54FF0500080F311881E
:10021000BFF34F8FBFF36F8F04F0C0FE4FF00000AD
:1002200080F31188BDE8084019680868B0E8F00F4D
:1002300080F30988BFF36F8F704700BF480000202C
:10024000EFF30580704700000948804709480047E0
:10025000FEE7FEE7FEE7FEE7FEE7FEE7FEE7FEE776
:10026000FEE7FEE704480549054A064B70470000D3
:10027000F3310008ED000008A8390020A83F002055
:10028000A83B0020A83B0020B2F120030AD5C2F110
:10029000200320FA02F001FA03F321FA02F140EA06
:1002A0000300704721FA03F04FF00001704700008F
:1002B0000FB47CB50C0009AA009001D02044401E68
:1002C000084B7B4469460190089800F04AFA0546BD
:1002D0001CB10020694600F057FA28467CBC5DF846
:1002E00014FB0000CD0400002DE9F0410E46044649
:1002F000002020622046E168884730B3252805D0D9
:10030000D4E901219047206A401CF2E7E1682046C9
:1003100000278847050018D0A5F14100192802D808
:1003200020354FF400673246294620462760FFF704
:1003300017FF40B1012804D0F61D26F00706083645
:10034000D8E7361DD6E72846DAE7206ABDE8F0810F
:1003500070B50C460546012A05D02878800600D5E0
:10036000EA69002302E0012305E05B1C934202D20C
:10037000E05C0028F9D1A869E618C01AA861286ACB
:10038000184428622846AFF3008004E0D5E9012133
:1003900014F8010B9047B442F8D32846AFF300801D
:1003A00070BD00002DE9F041064600241068752953
:1003B000314616A510D0AFF30080002802DA404283
:1003C00013A507E031688A0701D512A502E04907A5
:1003D00004D511A5012401E0AFF3008000210A2219
:1003E00006F1240709E0B0FBF2FCB0FBF2F302FBDC
:1003F0001C00303078541846491C0028F3D123469D
:100400002A463046BDE8F04100F04DB9000000003A
:100410002D0000002B0000002000000070B50646F3
:1004200000F032F90468054630460A22002100F047
:10043000CEF92C6070BD30B505460B462A4613F840
:10044000014B12F8010B08B1A042F8D01CB10028F2
:1004500002D06D1CF1E7284630BD40EA010370B5BB
:100460009B072ED14FF00136042A2AD308C810C9A1
:100470009D1B9D43121F15EAC61517D0D8B2E1B2D5
:10048000401A50EA056110D198B2A1B2401A50EA60
:1004900005410AD123F07F4024F07F41401A50EA01
:1004A000052102D1180EA0EB146070BDA342DBD071
:1004B00018BA21BA884201D9012070BD4FF0FF302F
:1004C00070BD0AB9002070BD10F8013B11F8014B56
:1004D00063B1A3420AD1521E08D010F8013B11F8B3
:1004E000014B1BB1A34201D1521EEDD1181B70BDAF
:1004F000032A40F2308010F0030C00F0158011F850
:10050000013BBCF1020F624498BF11F801CB00F827
:10051000013B38BF11F8013BA2F1040298BF00F87B
:1005200001CB38BF00F8013B11F0030300F0258038
:10053000083AC0F0088051F8043B083A51F804CB5F
:10054000A0E80810F5E7121D5CBF51F8043B40F825
:10055000043BAFF30080D20724BF11F8013B11F830
:1005600001CB48BF11F8012B24BF00F8013B00F874
:1005700001CB48BF00F8012B704710B5203AC0F0FE
:100580000B80B1E81850203AA0E81850B1E8185094
:10059000A0E81850BFF4F5AF5FEA027C24BFB1E8D1
:1005A0001850A0E8185044BF18C918C0BDE8104042
:1005B0005FEA827C24BF51F8043B40F8043B08BF4B
:1005C0007047D20728BF31F8023B48BF11F8012B12
:1005D00028BF20F8023B48BF00F8012B704702F00B
:1005E000FF0343EA032242EA024200F002B84FF05E
:1005F00000020429C0F0128010F0030C00F01B80F0
:10060000CCF1040CBCF1020F18BF00F8012BA8BFFD
:1006100020F8022BA1EB0C0100F00DB85FEAC17CC1
:1006200024BF00F8012B00F8012B48BF00F8012B74
:1006300070474FF0000200B51346944696462039A5
:1006400022BFA0E80C50A0E80C50B1F12001BFF48B
:10065000F7AF090728BFA0E80C5048BF0CC05DF8F1
:1006600004EB890028BF40F8042B08BF704748BF3F
:1006700020F8022B11F0804F18BF00F8012B7047B3
:1006800070477047704700000048704744390020A9
:1006900010B5FFF7F9FF006810BD10B50446FFF76D
:1006A000F3FF046010BD2DE9F0470D4699469246D0
:1006B000044600F124080168880604D5E06921F0A9
:1006C0001001216000E00120A84201DD471B00E08D
:1006D0000027A1697A1902EB0900081AA0612078A5
:1006E000C00602D42046AFF30080002608E0D4E91B
:1006F00001211AF806009047206A401C761C2062EF
:100700004E45F4DB2078C0060AD52046AFF30080C2
:1007100006E0D4E9012130209047206A401C206285
:10072000381EA7F10107F4DC07E0D4E9012118F82D
:1007300005009047206A401C2062281EA5F1010593
:10074000F3DC2046AFF300802078000602D50220BB
:10075000BDE8F0870120FBE701694A1C02610878C7
:10076000704700B58FB0CDE90131002105910549F1
:100770007944CDE9031011466846FFF7B5FD0FB087
:1007800000BD0000E5FFFFFF0A6802F8010B0A60E8
:100790007047D1E900239A4202D2531C0B601070BB
:1007A000704710B5436913B1AFF3008001E0FFF764
:1007B000CFFD012010BD127800F124010A70002243
:1007C0004A700122EDE711684FF0FF32E9E72DE9A9
:1007D000F04791460F4680460446002614F8015B18
:1007E0002DB100F031F80068405DC007F6D12B2D27
:1007F00002D02D2D18D0641E4A463946204600F0FE
:100800002BF827B13968A14201D1C7F800804FF019
:10081000020471050BD54042002803DDFFF734FFC9
:100820000460A007BDE8F08746F48066E4E700288E
:10083000F8DAFFF729FF04606FF00040F2E70000EC
:10084000004870474439002010B500F079F8001DC9
:1008500010BD00BF395500002DE9F05F82461546F6
:100860008B4600270AF10104B9460078302801D0F0
:100870009DB113E014F8010B0127782803D0582804
:1008800001D045B10AE00DB1102D07D1002714F8B1
:10089000010B102502E0082500E00A250026B046DD
:1008A0000EE005FB080005FB06F101271FFA80F8A2
:1008B00001EB1046B6F5803F00D3B94614F8010BA2
:1008C000294600F041F80028EBDABBF1000F05D013
:1008D0000FB1641E00E05446CBF80040B9F1000FA0
:1008E00006D0FFF7D1FE02210160C81EBDE8F09FCF
:1008F00048EA0640FAE77546FFF7A2FFAE46050054
:100900006946534620F00700854618B020B5FFF72A
:10091000A9FCBDE820404FF000064FF000074FF063
:1009200000084FF0000B21F00701AC46ACE8C0090D
:10093000ACE8C009ACE8C009ACE8C0098D46704716
:1009400000487047643900203A2800D2303820F03F
:100950002002412A01D3A2F13700884201D34FF08F
:10096000FF30704710B50446AFF300802046BDE865
:100970001040FFF716BC00004FF0013C50F8042B6C
:1009800051F8043B9A4221D1A2EB0C03934313EAA2
:10099000CC1317D150F8042B51F8043B9A4215D1CF
:1009A000A2EB0C03934313EACC130BD150F8042BA6
:1009B00051F8043B9A4209D1A2EB0C03934313EA8A
:1009C000CC13DBD04FF00000704700BFD01A01BA43
:1009D000B1FA81F101F0180122FA01F0CB40C1F126
:1009E0002001DBB2C0B2C01A2CFA01F3D11A914334
:1009F00011EAC311E6D1704701491820ABBEFEE7EA
:100A0000260002007047000070B504460068816847
:100A1000C943C90717D1816821F00101816000F045
:100A200069FE05460AE000BF00F064FE401B022894
:100A300004D920688068C043C00706D02068806859
:100A4000C043C007F0D0002070BDA06A40F0100085
:100A5000A062E06A40F00100E062012070BD000089
:100A6000F8B500260446009600688168C943C907A6
:100A70002DD0816841F00101816016481649006857
:100A8000B0FBF1F000E0401E00900028FBD100F028
:100A900031FE054616E000BF00F02CFE401B022888
:100AA00010D920688068C043C0070BD0A06A40F00E
:100AB0001000A062E06A40F00100E06284F8246067
:100AC0000120F8BD20688068C043C007E4D1002041
:100AD000F8BD00004400002040420F00FEE772B65F
:100AE00010F8781F0022027062B60846704710B5F1
:100AF0000446006F401C206700F0FCFDE0662046C5
:100B000000F02AF810B1012084F87800002060720B
:100B100004F108012068BDE81040012201F070BD19
:100B20002DE9F0410F461D46164604467C21FFF78D
:100B300080FD6566C4E900760020607200F0DAFD91
:100B4000A066012084F8780004F108012068BDE85F
:100B5000F041012201F054BD406E10B10078002830
:100B600000D00120704710B50346407A002817D006
:100B7000986E081AC82813D900205872586F401C64
:100B800058671846FFF7E8FF10B1012083F8780096
:100B90001868BDE81040012203F1080101F030BDE2
:100BA00010BD10B5044690F861000B4694F8601033
:100BB000884201D1002010BD94F86100112200EBA1
:100BC0000010011918461C31FFF792FC14F8610F50
:100BD000401C00F003002070012010BD012180F8AE
:100BE0007810704770B50446057A00F083FDA06662
:100BF000607A38B10026012808D002280AD00328DC
:100C000038D10FE05A2D35D1012009E0A52D30D182
:100C1000022005E0A572ED1E0D2D2AD8E6720320F4
:100C2000607227E0E07A04F10C01102803D24554E9
:100C3000E07A401CE072C2B2A07A82421AD394F8E1
:100C40006020521C02F0030594F86120AA4210D0E3
:100C500094F8602002EB021222441077A27A94F8F2
:100C6000600000EB001020441D30FFF741FC84F8C9
:100C70006050667204F108012068BDE870400122EE
:100C800001F0BEBC8088081A80B2704710B50346D8
:100C9000FFF762FF002805D01868BDE81040142354
:100CA00001F002BD10BD00001CB50346FFF754FF64
:100CB000002816D0988801440AA0D0E90040CDE968
:100CC0000040080A8DF804008DF80510100A8DF810
:100CD00006008DF80720186814230822694601F0E1
:100CE000E3FC1CBD5AA505820000000070474FF4CC
:100CF000006000F0F9BB000006490020C86106480A
:100D0000016941F004010161016941F040010161A3
:100D1000704700005004002000200240064A0021D5
:100D2000D16106490A6942F002020A614861086914
:100D300040F040000861704750040020002002404D
:100D4000044B0022DA61044A136943F00103136182
:100D50000180704750040020002002401448002207
:100D6000C168CB06134904D5CA6942F00202CA61C0
:100D70001022C3685B0705D5CB6943F00103CB6143
:100D800042F00402C369DB0707D0CB6943F00403D8
:100D9000CB61C16921F00101C161A2F58071013906
:100DA00001D0C2607047C16921F00101C161704783
:100DB000002002405004002070B5054600F09AFC67
:100DC0000646114C09E0681C07D025B100F092FCE2
:100DD000801BA84201D9032070BDE068C007F2D192
:100DE000E068800601D52020E060E068C00605D4F8
:100DF000E069C00702D1E068400703D5FFF7AEFF06
:100E0000012070BD002070BD00200240F8B5002414
:100E1000009490F824202546012A12D0012280F85F
:100E200024204A681F23072A0DD20668776B521EBA
:100E300002EB820293409F430B6893401F4377630A
:100E400019E00220F8BD06680D2A0AD2376BD21FBE
:100E500002EB820293409F430B6893401F4337632A
:100E600009E0F76A0D3A02EB820293409F430B6858
:100E700093401F43F7620A68072306680A2A0AD3C9
:100E8000F7680A3A02EB420293409F438B68934013
:100E90001F43F76008E0376902EB420293409F432B
:100EA0008B6893401F4337610A68102A01D0112ACA
:100EB00020D1124B02689A4217D193681B0219D4B1
:100EC000936843F4000393600968102912D10C4918
:100ED0000C4A0968B1FBF2F101EB8101490000E025
:100EE000491E00910029FBD104E0816A41F02001F4
:100EF0008162012480F824502046F8BD002401407E
:100F00004400002040420F000068C06C70470000A1
:100F10002DE9F0414FF0000704003D467ED0A06A65
:100F2000002628B9E66284F82460204600F07EF8A6
:100F30002046FFF769FDA16AC90600D420B1A06A66
:100F400040F01000A06269E0A16A21F4885141F0EC
:100F50000201A1626268E169237B0A4347EA430117
:100F60000A43A1684FF48077B94209D0012907D01C
:100F70005FF0000194F814C0BCF1010F02D00AE048
:100F80003946F7E7F3B1A36A43F02003A362E36AAB
:100F900043F00103E3622368D3F804C02CF4694CE6
:100FA0004CEA010CC3F804C021688B68DFF870C0FC
:100FB00003EA0C0313438B60A168B9420BD00129EB
:100FC00009D00CE0DFF85CC0A3690CEB43330B43A2
:100FD00043F40061DFE7218A0D05A5F5801521683E
:100FE000CB6A23F470032B43CB62216889680E4BD4
:100FF0001940914208D1E662A16A21F0020141F054
:101000000101A162BDE8F081A06A20F0020040F079
:101010001000A062E06A40F00100E0620120F1E708
:10102000FDF7E1FF00E0FFFFFE0E1FFF00B585B0FA
:101030000021009101910291039100680E498842BC
:1010400018D10E48816941F400718161816901F410
:1010500000710491816941F00401816180696946F0
:1010600000F0040004900120009003200190044847
:1010700000F046FA05B000BD002401400010024017
:10108000000801402DE9F84300270D46044600976B
:1010900000F030FB804620688168C90508D5A06A49
:1010A00040F02000A06284F824700120BDE8F8839D
:1010B0004168C90503D4C06A10F4700F2AD0022019
:1010C00000F018FC3B490968B1FBF0F620680369A1
:1010D00039490B424FEA61014FEAA1121FD1C3689F
:1010E0004FEA611C13EA0C0F19D103690B4225D199
:1010F000C068104222D1142023E0681C0AD02DB110
:1011000000F0F8FAA0EB0800A84203D920680068B4
:10111000800725D5206800688007EED52DE003699B
:101120000B4202D1C168114206D0026923490A422A
:1011300006D1C068084203D1542002E0292000E013
:10114000FC204643009816E0681C11D02DB100F039
:10115000D1FAA0EB0800A8420AD90098B04207D201
:10116000A06A40F00400A06284F8247003209DE788
:101170000098401C0090B042E6D321686FF0120046
:101180000860A06A40F40070A06220688068C0F324
:10119000424007280CD1207B50B9A06A20F480700F
:1011A000A062A06AC00403D4A06A40F00100A0625B
:1011B00000207BE744000020244992244992240027
:1011C00070B5044690F8240001280DD0012084F861
:1011D00024002046FFF744FC02004FF0000005D039
:1011E00084F82400104670BD022070BDA16A40F250
:1011F0000123994341F48071A1621F4D23681F4967
:10120000AB4218D10E6816F4702F14D0A66A46F4BB
:101210008016A6620E68760505D5A66A26F40056E5
:1012200046F48056A662A66AF6040AD5E66A26F057
:101230000606E66206E0A66A26F48016A6625E68E6
:10124000E9E7E06284F824006FF00200186020688B
:101250008368C3F34243072B05D1A84208D109682C
:1012600011F4702F04D0816841F480118160B9E7D6
:10127000816841F4A001F9E70028014004240140FD
:1012800010B590F821100022022905D004218163B5
:1012900080F82020012010BD01680B6823F00E03A8
:1012A0000B6001680B6823F001030B6090F840307D
:1012B000C46B012101FA03F3636080F8211080F808
:1012C0002020104610BD000010B590F82110002419
:1012D000022903D00421816301243DE001680A68EA
:1012E00022F00E020A6001680A6822F001020A6018
:1012F0001A4A0168914201D1012121E0174A1432B2
:10130000914201D110211BE0144A2832914201D1AF
:10131000891515E0114A3C32914201D189140FE040
:101320000E4A5032914202D14FF4803108E00B4A0C
:101330006432914202D14FF4801101E04FF080718C
:10134000064A083A5160012180F82110002180F8F6
:101350002010416B01B18847204610BD08000240B3
:101360002DE9F047054626480F460126017E012952
:101370000FD00121814601762868DFF888804CF281
:101380005034022808D0A2462046FFF715FDA8B128
:1013900031E00220BDE8F0872046FFF70DFD08BBD5
:1013A0000120FFF7A9FC2046FFF706FDD8F8101032
:1013B000064621F00401C8F810101CE04FF0FF3081
:1013C0003860AC6811E02046FFF7A8FC5046FFF7F4
:1013D000F3FCD8F81010060021F00201C8F8101034
:1013E00001D03C6007E004F58064D5E9020100EB20
:1013F0008120A042E7D8002189F818103046C9E7BB
:1014000050040020002002400348016941F080019F
:101410000161002070470000002002402DE9F05FCC
:1014200007461C4888460024017E15461E460129B1
:1014300009D00121814601764CF2503A5046FFF71F
:10144000BBFC18B122E00220BDE8F09F012F02D0C2
:10145000022F00D00427D346DFF83CA02201284603
:101460003146FEF711FF81B208EB4400FFF768FC3C
:101470005846FFF7A1FCDAF8102022F00102CAF862
:10148000102018B9641CE4B2BC42E7D3002289F8EA
:101490001820D9E75004002000200240064900200F
:1014A0000A69120607D5054A4A60054A4A60096971
:1014B000090600D50120704700200240230167453E
:1014C000AB89EFCD10B54FF40061884206D10448D6
:1014D00000F006F9034948700120087010BD0000B3
:1014E0000008014000000020044910B50A680242CB
:1014F00002D00860FFF7E6FF10BD000014040140B1
:101500002DE9F84FDFF8B8910024A9F1040B234628
:101510000F2709F1040AABF1040EC9E00125A5402B
:101520002A40AA427DD1674ED1F804C0ACEB060830
:10153000B44532D014DCBCF1030F3AD009DCBCF165
:10154000000F2AD0BCF1010F1CD0BCF1020F31D129
:101550001DE0BCF1110F17D0BCF1120F2AD119E018
:10156000B8F5881F19D006DCB8F5803F15D0B8F55E
:10157000801F1FD111E0B8F5001F0ED0B8F5041F71
:1015800018D10AE0CB6815E0CB681B1D12E0CB68D0
:1015900008330FE0CB680C330CE08B682BB1012BC8
:1015A0004FF0080303D0456104E0042302E0056125
:1015B00000E00023FF2A01D8064601E000F10406FE
:1015C0004FEA840501D9A5F12005D6F8008007FA75
:1015D00005FC28EA0C0803FA05F548EA0508C6F8F0
:1015E00000804D68ED0062D5374DAE6946F00106CA
:1015F000AE61AD6924F0030605F001050095334D99
:1016000006EB050CDCF80850A607360F07FA06F8BB
:1016100025EA0805DFF8B880404503D14FF00008FF
:1016200017E044E0DFF8AC80404502D14FF00108FC
:101630000FE0DFF8A480404502D14FF0020808E037
:10164000DFF89880404502D14FF0030801E04FF0E9
:10165000040808FA06F848EA0508CCF808804D683E
:10166000D9F80060ED024D4601D5164300E09643DF
:101670002E604D68DAF80060AD02554601D516437C
:1016800000E096432E604D68DBF80060AD035D46D8
:1016900001D5164300E096432E604D68DEF80060E9
:1016A000ED03754601D5164300E096432E60641C99
:1016B0000D682A46E5407FF431AFBDE8F88F0000A1
:1016C0000804014000001110001002400000014019
:1016D00000080140000C01400010014000140140CE
:1016E0008068084000D0012070470AB1016170474E
:1016F0000904FBE7014880687047000038000020BB
:1017000070B5040013D021684CF6CC400860216805
:1017100045F255500860D4E9000141602168A06895
:101720008860FFF7E7FF054641F23C360DE00120F7
:1017300070BD00BFFFF7DEFF401BB04205D9206837
:10174000C068800701D0032070BD2068C068800792
:10175000F0D121684AF6AA200860002070BD006818
:101760004AF6AA2101600020704700000248816803
:10177000027811448160704738000020074810B596
:10178000016841F010010160032000F0A1F80F2072
:1017900000F006F800F04AF8002010BD00200240DA
:1017A00030B505461C4887B0816941F4006181610C
:1017B000806906A900F40060009001A800F0F8F923
:1017C00000F026FA1549164AB0FBF1F11548491EFA
:1017D0000260416040F2E7320021C0E903218160EC
:1017E000816100F0DDFB040012D10E4800F006FC20
:1017F00004000DD1192000F03DF8102D07D2002271
:101800002946192000F044F80748056000E001244B
:1018100007B0204630BD00000010024040420F00DB
:10182000002C0140040400203C0000200F4808B5B3
:10183000816941F001018161816901F0010100913B
:10184000C16941F08051C161C069002200F080503F
:1018500000900F21901E00F01BF80548416821F010
:10186000E06141F00071416008BD000000100240DD
:1018700000000140002809DB00F01F020121914017
:101880004009800000F1E020C0F80011704700001E
:10189000F0B40E4B1B680C46C3F30223C3F10705DB
:1018A000042D00D90425191D072901D2002300E0C9
:1018B000DB1E012606FA05F1491E214099409E4093
:1018C000761E16403143F0BC01F029BE0CED00E05D
:1018D000064900F0070208684FF6FF03184040EA87
:1018E0000220034A10430860704700000CED00E03E
:1018F0000000FA0510B501460020234C012922D032
:10190000022939D010291DD161682268D20119D568
:101910001E48C1F38342C903805C0AD561681B4A33
:10192000C1F34041921E515C194AB2FBF1F14843A8
:1019300001E0184948436168490203D4400003218B
:10194000B0FBF1F010BD226AC2F30121012903D1DD
:10195000920701D5C80310BD022905D1626A92071A
:1019600002D549F6404010BD0329FCD12168890306
:10197000F9D54FF2244010BD00F04AF96168C1F377
:101980008131491C4900DBE700100240E464000893
:1019900000127A0000093D002DE9F8430546007861
:1019A000354CC00754D0E0690026C00008D4E06977
:1019B00040F08050E061E069012600F08050009026
:1019C0002E480168C90512D40168804641F480712F
:1019D0000160FFF78FFE074605E000BFFFF78AFEB4
:1019E000C01B642823D8D8F80000C005F6D5206AAB
:1019F00010F4407021D0A98801F4407181421CD0BC
:101A0000206A1F49012220F440700A6000220A6007
:101A10002062C00711D0FFF76DFE074641F28838FB
:101A200008E000BFFFF766FEC11B414502D9032055
:101A3000BDE8F883206A8007F4D5206A696820F43D
:101A40004070084320621EB1E06920F08050E061E0
:101A50002878800705D56068A96820F440400843CD
:101A600060602878C00605D56068E96820F48000C9
:101A7000084360600020DBE7001002400070004077
:101A8000400442422DE9F0470F46050061D0434E25
:101A9000306800F00700B84209D2306820F0070033
:101AA00038433060306800F00700B84251D12868F0
:101AB0003B4C810712D5400703D5606840F4E060D5
:101AC00060602878000703D5606840F4605060606B
:101AD0006068A96820F0F000084360602878C007BB
:101AE00028D06868012810D02168022810D0890702
:101AF00000292EDA616821F0030101436160FFF7DC
:101B0000F9FD804641F288390DE021688903EFE74D
:101B10008901EDE7FFF7EEFDA0EB0801494502D989
:101B20000320BDE8F0876068696800F00C00B0EB46
:101B3000810FEFD1306800F00700B8420BD9306850
:101B400020F0070038433060306800F00700B842EA
:101B500001D00120E5E72878400705D56068E968ED
:101B600020F4E060084360602878000706D56068CC
:101B7000296920F4605040EAC100606000F058F824
:101B80006168084AC1F30311515CC8400649086006
:101B900006480068FFF704FE0020C2E7002002406C
:101BA00000100240F4640008440000203C000020C3
:101BB0000F2202600C4A536803F00303436053682A
:101BC00003F0F0038360536803F4E063C36052687A
:101BD0004FF4E06303EAD20202610448006800F0B7
:101BE000070008607047000000100240002002401B
:101BF0000448054900684968044AC1F30221515C60
:101C0000C8407047440000200010024004650008EE
:101C10000448054900684968044AC1F3C221515C7F
:101C2000C8407047440000200010024004650008CE
:101C30000E4A51680E4801F00C03042B11D0082BFA
:101C40000FD10C48C1F38343C903C05C0AD5516866
:101C5000084AC1F34041921E515C054A5043B0FB13
:101C6000F1F07047044948437047000000100240FB
:101C700000127A00D264000800093D002DE9F84FF7
:101C8000040070D02078C04DC00749D06868C0F308
:101C90008100012807D06868C0F38100022809D1BB
:101CA0006868C00306D52868800339D560680028B5
:101CB000E7D035E06068B0F5803F0BD010B1B0F5EB
:101CC000A02F11D0286820F480302860286820F4E4
:101CD000802002E0286840F480302860606890B17D
:101CE000FFF708FD06460AE0286840F480202860D7
:101CF000F0E700BFFFF7FEFC801B642873D828685C
:101D00008003F7D50CE0FFF7F5FC064605E000BFC1
:101D1000FFF7F0FC801B6428F0D828688003F7D414
:101D200020789A4E80074FF001094FF0000839D50E
:101D3000686810F00C0F07D06868C0F381000228B3
:101D400009D16868C00306D42868800714D52069C3
:101D5000012808D110E02069B0B1C6F80090FFF763
:101D6000C9FC074605E00AE1FFF7C4FCC01B0228D6
:101D7000C4D828688007F7D52868616920F0F80082
:101D800040EAC10028600DE0C6F80080FFF7B2FC11
:101D9000074604E0FFF7AEFCC01B022823D82868E2
:101DA0008007F7D4207800072CD57948A169D9B1EC
:101DB000C0F80090FFF79EFC074604E0FFF79AFC8E
:101DC000C01B02280FD8686A8007F7D571484FF406
:101DD000FA510068B0FBF1F0009000BF0098411E7E
:101DE0000091FAD20EE080E0C0F80080FFF782FC9C
:101DF000074604E0FFF77EFCC01B022875D8686A1E
:101E00008007F7D42078400760D5E8690027C00034
:101E100008D4E86940F08050E861E869012700F0E3
:101E2000805000905C480168C90513D4016883465E
:101E300041F480710160FFF75DFC824606E000BF5F
:101E4000FFF758FCA0EB0A0064284ED8DBF800002E
:101E5000C005F5D5E06801280AD008B1052813D0DF
:101E6000286A20F001002862286A20F0040002E0BD
:101E7000286A40F001002862E06841F2883B98B18E
:101E8000FFF738FC82460BE0286A40F00400286225
:101E9000EEE700BFFFF72EFCA0EB0A0159455AD828
:101EA000286A8007F6D50CE0FFF724FC824605E09F
:101EB000FFF720FCA0EB0A0159454CD8286A80079F
:101EC000F6D41FB1E86920F08050E861E06988B37A
:101ED0006968C1F38101022944D00228C6F86080F4
:101EE00004D0FFF707FC044638E034E0FFF702FCBB
:101EF000074604E0FFF7FEFBC01B02282BD828682A
:101F00008001F7D4206AB0F5803F05D16868A168E8
:101F100020F4003008436860D4E908010843696888
:101F200021F4741108436860C6F86090FFF7E2FB83
:101F3000044606E025E000BFFFF7DCFB001B02289B
:101F400009D828688001F7D51BE000BFFFF7D2FB56
:101F5000001B022802D90320BDE8F88F2868800101
:101F6000F4D40EE00128F7D06868226A00F48031CA
:101F7000914204D1616A00F47010884201D00120BE
:101F8000EAE70020E8E700000010024000004242BB
:101F900080044242440000200070004070477047B7
:101FA00010B5040003D094F83D0010B107E0012003
:101FB00010BD002084F83C00204600F01EF80220EE
:101FC00084F83D00211D206801F01AF9012084F8F1
:101FD000460084F83E0084F83F0084F8400084F80E
:101FE000410084F8420084F8430084F8440084F8F7
:101FF000450084F83D00002010BD704790F83D106A
:10200000012901D001207047022180F83D100168AC
:10201000CA6842F00102CA6000680B49884208D0D1
:10202000B0F1804F05D00949884202D00849884262
:1020300004D1816801F00701062903D0016841F04D
:102040000101016000207047002C014000040040A5
:102050000008004070472DE9F04104460068C6685A
:1020600005694FF00007A90713D5B10711D5F91E6F
:10207000016101202077206880698007204602D016
:10208000FFF7E8FF04E000F07EF8204600F07CF85F
:102090002777680716D5700714D521686FF00400FC
:1020A0000861022020772068806910F4407F204674
:1020B00002D0FFF7CFFF04E000F065F8204600F003
:1020C00063F82777280715D5300713D521686FF0F7
:1020D00008000861042020772068C0698007204636
:1020E00002D0FFF7B7FF04E000F04DF8204600F003
:1020F0004BF82777E80616D5F00614D521686FF05F
:1021000010000861082020772068C06910F4407F23
:10211000204602D0FFF79EFF04E000F034F820468E
:1021200000F032F82777E80708D0F00706D02168DA
:102130006FF001000861204600F028F8280608D555
:10214000300606D521686FF0800008612046FFF751
:1021500025FF680608D5700606D521686FF0400097
:102160000861204600F01CF8A8060AD5B00608D57C
:1021700021686FF0200008612046BDE8F041FFF7BC
:102180000EBFBDE8F081704770470000006803494A
:10219000884201D1FFF7EABA70470000002C0140E5
:1021A0007047704710B5044600680F49884202D155
:1021B0000E48FEF79CFC0E492068884203D10B486C
:1021C0007C30FEF794FC0B49206888420AD10A490A
:1021D00000208881054801220B31BDE8104090386D
:1021E00000F00EBA10BD000000480040DC010020E5
:1021F000003801400044004000000020F8B50168AC
:1022000004460868CA684B6910F00F0F4FF00005CC
:1022100059D003F0010602F49077374365D0C10727
:1022200005D0D10503D5616C41F00101616441071E
:1022300005D5D90703D0616C41F0020161648107C3
:1022400005D5D90703D0616C41F004016164010731
:1022500007D502F02001314303D0616C41F0080141
:102260006164616C00293AD0800604D5900602D5DD
:10227000204601F030F820684069616CC0F380109E
:10228000090700D460B3204600F0FEFF20684069D3
:10229000400621D52068143050E8001F21F040018D
:1022A00040E80012002AF5D1E06BA8B16D49416306
:1022B000E06BFFF709F8002811D0E06B416B01B02B
:1022C000BDE8F040084783060FD593060DD520469C
:1022D000BDE8F84000F0FFBF2046FFF763FFF8BD00
:1022E0002046FFF75FFF6564F8BD266B2023012EB3
:1022F0007CD1C6067AD5D60678D50868486800909D
:1023000048694FF00206400640D5E16B0868406816
:102310000004000CE8D0A28D8242E5D9E0858869EE
:1023200020282DD020680C3050E8001F21F4807147
:1023300040E80012002AF5D12068143050E8001F50
:1023400021F0010140E80012002AF5D12068143084
:1023500050E8001F21F0400140E80012002AF5D1AA
:1023600084F84230256320680C3050E8001F21F0CB
:10237000100140E80012002AF5D1E06BFEF780FF63
:102380006663A08DE18D401A81B22AE0A08DE18DB7
:10239000401A81B2E08D0028A6D00029A4D022687E
:1023A0000C3252E8000F20F4907042E80007002F32
:1023B000F5D12068143050E8002F22F0010240E8E7
:1023C0000027002FF5D184F84230256320680C30B7
:1023D00050E8002F22F0100240E80023002BF5D136
:1023E00066632046FFF7DDFEF8BDFFE705062BD547
:1023F000150629D594F841002128F5D1A068B0F53B
:10240000805F01D12069B0B1206A411C216221683E
:1024100000784860E08C401E0004000CE084E3D1AA
:102420002068C16821F08001C1602068C16841F066
:102430004001C160D8E7206A0088C0F30800486006
:10244000206A801C2062E5E74006CDD55006CBD53A
:10245000CA68204622F04002CA6084F8413000F089
:1024600073F9C1E77932000870B5040004D094F81C
:102470004100002510B106E0012070BD84F84050F5
:10248000204600F023F8242084F841002068C16829
:1024900021F40051C160204600F07EFF20680169F0
:1024A00021F4904101612068416921F02A014161D4
:1024B0002068C16841F40051C1606564202084F83F
:1024C000410084F842006563002070BDF0B585B01E
:1024D000002400940194029403940368424F022064
:1024E00042490322424D4602BB4225D18B6943F447
:1024F00080438B618B6903F4804304938B6943F0C1
:1025000004038B618969039201F0040104910102C3
:10251000CDE9001069462846FEF7F2FFCDE90064D8
:10252000694628460294FEF7EBFF0022052125208C
:10253000FFF7AEF9252028E02E4FBB4229D1CB6909
:1025400043F40033CB61CB6903F4003304938B690C
:1025500043F004038B618969039201F00401049143
:102560000421CDE9001069462846FEF7C9FF08207E
:10257000CDE90004694628460294FEF7C1FF002217
:1025800005212620FFF784F92620FFF773F905B00F
:10259000F0BD194DAB42FAD1CB6943F48023CB6136
:1025A000CB6903F4802304938B6943F008038B61A8
:1025B0008969124D01F00801CDE90321CDE90060E0
:1025C00069462846FEF79CFFE814CDE900046946F9
:1025D00028460294FEF794FF002205212720FFF7EA
:1025E00057F92720D1E700000038014000100240D1
:1025F000000801400044004000480040000C014039
:1026000090F84230202B01D00220704721B11AB13E
:102610000023036300F01CBF0120704770B505461E
:1026200000681C49884202D11B48FEF7DBFA1B49AF
:102630002868884223D11A4CE17AA08900267F2895
:1026400000D3A681A089144AF8321318401CA08137
:1026500019707D290CD1A0891654A2890E49521CEB
:10266000F83101F18000FDF788FF01206072A6813A
:102670000B49094801220B319038FFF7C1FF094986
:102680002868884205D1BDE8704003487C30FEF7D9
:10269000A9BA70BD00480040DC01002000440040A1
:1026A00000000020003801402DE9F843044690F86E
:1026B0004100984616460D46202802D00220BDE86B
:1026C000F88385B17EB100206064212084F8410048
:1026D000FFF710F8A6848146E684A0682027B0F5AD
:1026E000805F02D003E00120E9E7206910B12E46A7
:1026F00000250EE000260CE08021204600F0C3FEFD
:10270000A8B9C6B116F8010B21684860E08C401EDC
:10271000E084E08C4B464FF00002CDF800800028AA
:10272000EAD14FF04001204600F0ADFE40B184F800
:1027300041700320C3E735F8020BC0F30800E3E75C
:1027400084F841700020BAE77047FEE73EB50024E8
:1027500010480094019402940D4984600160047350
:102760000475012505614FF460214460C161FEF7E5
:10277000CFFB08B172B6FEE7CDE9004569460548D2
:102780000294FEF743FB002801D072B6FEE73EBD7F
:1027900000240140C80000202DE9F04186B000244B
:1027A00029480094019402940394816941F0200126
:1027B0008161816901F020010491816941F0040186
:1027C0008161816901F004010491816941F008018E
:1027D000816180691D4F00F008004FF481750490FD
:1027E000002229463846FEF780FFDFF86480002289
:1027F000F8214046FEF779FF0126CDE90056022573
:1028000069463846CDE90245FEF77AFEA8020090F7
:102810001048CDE9010569463846FEF771FEF820FB
:10282000CDE9000669464046CDE90245FEF768FE5F
:10283000002205212820FFF72BF82820FFF71AF89F
:1028400006B0BDE8F0810000001002400008014021
:10285000000C014000003110FEE7FEE7A4B00020AC
:102860004FF6FF7422902390FF208DF87800FA2015
:102870001F90FF20CDE90E040B90002007940390D9
:10288000019004900290159000900D90A346A246EE
:10289000A146A046264625460C9009900890069031
:1028A000059000F0A1FFFE4F387C28B9787C18B95C
:1028B0000120387402F08AF800F07EFF4FF4FA60CD
:1028C00001F004F9F64B00221033A3F5147101F165
:1028D0004800FEF725F9F24B4FF480521133A3F272
:1028E000E12101F5AA70FEF71BF9F87908B1002182
:1028F00000E0112145F2160002F096FB322001F0B3
:10290000E5F8E74F45F20200F97802F08DFB32203E
:1029100001F0DCF8B97945F2260002F085FB32209F
:1029200001F0D4F8397B45F2250002F07DFB32201E
:1029300001F0CCF8B9784FF4A04002F075FB3220DA
:1029400001F0C4F8397945F2010002F06DFB322044
:1029500001F0BCF8397A45F2500002F065FB3220F4
:1029600001F0B4F8397C4FF4B24002F05DFB322044
:1029700001F0ACF8797C45F6011002F055FB3220ED
:1029800001F0A4F8F97A45F2640002F04DFB322020
:1029900001F09CF8C348807A02F072F8322001F00E
:1029A00095F8642001F092F801F0BAFFC82001F018
:1029B0008DF801F098F8219001F095F8A7F5807155
:1029C00020900122A1F5C470FFF71AFEB648FEF769
:1029D000C6FE01F088F82199411A47F23050814231
:1029E00004D901F09DFF01F07EF82190FEF782FEF0
:1029F0000146AD48E430FEF7B6F8FEF77BFE01462F
:102A0000AA48FEF7B0F8A94800277C38FEF767F817
:102A100000B10127A548FEF762F800B1012701F0D7
:102A200062F82099411A4EF66020814203D901F0E4
:102A30005AF8209000E0DFB34FF6FF74FF20CDE995
:102A40000E040B90FA20A346A246A146A0462646B5
:102A5000254607941F9039E094487C38FEF77CF8AF
:102A600030B39DF864000C280AD39DF865108329C3
:102A700006D19DF8661019B99DF86710102908D085
:102A8000052823D39DF86500822812D083281DD104
:102A90000FE09DF86C009DF86D10421E062A15D8B7
:102AA000172913D87F4FB8717971FEF723FE78612B
:102AB0000CE0BDF8660041BABDF8690047BA7B4832
:102AC0007C38FEF7DFF8394600F046FD774819A953
:102AD0007C38FEF766F80028BED137E07348FEF771
:102AE0003BF830B39DF864000C280AD39DF86510BC
:102AF000832906D19DF8661019B99DF86710102931
:102B000008D0052822D39DF86500822812D083289A
:102B10001CD10FE09DF86C009DF86D10421E062A36
:102B200014D8172912D85F4FB8717971FEF7E2FDFA
:102B300078610BE0BDF8660041BABDF8690047BA9C
:102B40005A48FEF79FF8394600F006FD19A9574884
:102B5000FEF727F80028C1D1FEF7CCFD514A516994
:102B600031B15169524B411A994201D2012100E021
:102B70000021936933B19369C01A4E4B984201D238
:102B8000012000E0002019B190791071507906E021
:102B900018B1107A1071D07901E0FF201071D07057
:102BA00014211746106B01F031F858BB9DF87800DE
:102BB000FF282BD03A49CA780B79D31A834201DB1C
:102BC00001234B72824201D8002048723448417977
:102BD0000491C1790391017A029181780091C17ABF
:102BE0000191417A1591C1780D9101790C9181790A
:102BF0000991017B0891017C0691407C0590386B1E
:102C000001F061F8049820B1112103E0002024496B
:102C1000DBE7002145F2120002F006FA0B99049856
:102C2000884209D008B1112100E0002145F21200CC
:102C300002F0FAF904980B900E990398884215D087
:102C400008B1112100E0002145F2150002F0ECF975
:102C5000142000F03BFF039808B1002100E011218F
:102C600045F2160002F0E0F903980E9007990098DB
:102C7000884206D001464FF4A04002F0D5F90098F2
:102C800007900F990D98884206D0014645F2020040
:102C900002F0CAF90D980F900C99594512D00BE02B
:102CA000D403002000000020F8000020580200207B
:102CB000905F010020BF020045F2010002F0B4F96C
:102CC000DDF830B00298504506D0014645F250007C
:102CD00002F0AAF9DDF808A00999494505D045F2A6
:102CE000260002F0A1F9DDF824900898404506D0AE
:102CF000014645F2250002F097F9DDF8208006989C
:102D0000B04205D001464FF4B24002F08DF9069E64
:102D10000598A84205D0014645F6011002F084F955
:102D2000059D0198A04205D0014645F2640002F0DD
:102D30007BF9019C029808B1012200E000222021C9
:102D40004948FEF7D2FC49484FF4AF721EA9C06A49
:102D500002F0C4FB01280BD19DF878101F98814226
:102D600006D045F2100002F05FF99DF878001F9040
:102D7000009828B1062807D0052807D0239812E02C
:102D80000020229023902CE0012009E03748C178F0
:102D9000007901F05DFE019911B115990843F3D155
:102DA00022901598239018B12298D0B1012700E005
:102DB00000272298B0B1012280212B48FEF795FC14
:102DC000012211022A48FEF790FC012240212648E8
:102DD000FEF78BFC012202212548FEF786FC11211B
:102DE00016E00027002280211F48FEF77EFC00220B
:102DF0004FF480711E48FEF778FC002240211A48EB
:102E0000FEF773FC002202211948FEF76EFC002138
:102E100045F2110002F008F937B1012210211248E1
:102E2000FEF763FC112105E0002210210E48FEF799
:102E30005CFC002145F2130002F0F6F80B4F787AA3
:102E400060B13221386B00F0E1FE38B900207872B1
:102E5000084800F09FFF386B00F035FF4FF4967084
:102E600000F034FEB2E50000000C0140000000203C
:102E70000008014054030020ADF5007D0020474DBF
:102E8000474C8DF8FC014FF4C8784FF44879002383
:102E90001A467FA9E86A00F05BFE1421286B00F057
:102EA000B5FE002876D1A07818B1052805D00628EF
:102EB00001D03CA102E03CA100E03DA1A878237C28
:102EC0003DA20BB13EA202E0637C03B13EA210B171
:102ED0000FF2FC0C01E00FF2001C31481230838B22
:102EE000468B078BCDE91863CDF868C01797468AE3
:102EF000B0F816C0878A038ACDE91336CDE9157C70
:102F00004689B0F80EC087890389CDE90F36CDE92F
:102F1000117CC68883884088CDE90B20CDE90D3629
:102F2000EE782B79E289A079CDE90702CDE909365F
:102F3000207BE2790AB126A200E027A2237A0BB116
:102F400027A300E017A366790EB121A600E022A610
:102F5000CDE90520CDE90363607A08B11CA200E049
:102F60001DA2E07847468DE807009DF8FC311D4A18
:102F700041461BA8FDF79CF90646286B00F0A3FE0E
:102F8000002E07DDBE4205D2B2B250231BA916485F
:102F9000FFF78AFB484600F099FD78E70000002023
:102FA000D40300206F6666006D616E75616C000071
:102FB0006175746F000000006E6F6E6500000000A8
:102FC0006D61696E0000000072656D6F74650000D0
:102FD000747275650000000066616C736500000026
:102FE0006F6E00004C6500084C0100201CB5FF24EA
:102FF0008DF8004002F0DEFC0C4D4FF49676019007
:1030000001F026FC8DF80000FF2801D0042801D231
:103010008DF80040022300226946E86A02F030F988
:10302000314601A801F09EFEEAE700000000002002
:1030300000252F46A9464FF4FA6000F047FD424EA6
:103040003221306B00F0E2FD404C70B94FF400616A
:103050003F48FEF745FB050004D1E07910B900F0C8
:1030600042FD0746306B00F02EFEDFF8E8B04FF06F
:1030700000084FF0010A307840B186F8008070787F
:10308000A84203D0054600F02EFD07461421306B00
:1030900000F0BCFD20BBFFB1E079E8B900F023FDF2
:1030A000C01B15B1012D1CD016E0217B01EB4102A4
:1030B000C2EBC111B0EBC10F0BD3607958B901223B
:1030C00008215846FEF711FB84F805A000F00BFD1F
:1030D0008146607920B10027607908B1E079B0B10C
:1030E0002BE0217B01EB4102C2EBC111B0EBC10F20
:1030F000607909D30028EED0002208215846FEF757
:10310000F4FA84F80580E6E70028E4D0E6E700F06A
:10311000EAFCA17940F25372A0EB09005143B0EBF5
:10312000411F0AD3002208215846FEF7DEFA84F830
:10313000058084F807A001F049FC306B00F0C3FD66
:10314000642000F0C3FC96E700000020D4030020B8
:1031500000080140000C014010B54FF0E02000696C
:1031600002F01AFC012803D0BDE8104001F0C2BFF4
:1031700010BD30B593B028216846FDF75AFA1421E6
:103180000AA8FDF756FA00250F9509200121109590
:103190000090119512954FF4803004910691CDE97D
:1031A00001050224CDE907404FF4E010099068467C
:1031B000FEF764FD08B172B6FEE70AA90F2081E8A8
:1031C00031004FF48060CDE90D0502210AA8FEF719
:1031D00059FC08B172B6FEE74FF4004011900F940D
:1031E0000FA8FEF7D9FB002801D072B6FEE713B096
:1031F00030BD70470148FEF72EBF000004040020D8
:10320000F0B50268194B1A4C1A4D4FF0804798429E
:1032100005D0B84203D0A04201D0A84203D122F089
:1032200070064A683243984205D0B84203D0A042A3
:1032300001D0A84203D122F44074CA6822434C69E9
:1032400022F08002224302608A68C2620A688262B7
:10325000984201D109690163012141610169C907EE
:1032600003D0016921F001010161F0BD002C014092
:10327000000400400008004010B5406A0021C185EC
:10328000C184FEF78FFF10BD01680C3151E8002F9B
:1032900022F4907241E80023002BF5D1016814312B
:1032A00051E8002F22F0010241E80023002BF5D164
:1032B000016B012909D101680C3151E8002F22F07E
:1032C000100241E80023002BF5D1202180F84210A4
:1032D00000210163704708B590F84210222901D0FF
:1032E000022008BD82684FF480539A4201D10169DF
:1032F00021B1816A9A421BD04AB10AE00268816A10
:103300005268C2F308020A80816A891C08E00269D7
:1033100072B10268526802F07F020A70816A491C29
:103320008162C18D491E0904090CC18503D01BE0CF
:1033300002685268F1E70168CA6822F02002CA6098
:103340000168CA6822F48072CA6001684A6922F082
:1033500001024A61202180F8421000214163026B82
:10336000012A03D0FFF75AF9002008BD0163016864
:103370000C3151E8002F22F0100241E80023002B0D
:10338000F5D101680A68D20602D50A684968009139
:10339000818DFEF706FFE7E770B504460068016916
:1033A000E26821F44051114301612169A06808439A
:1033B000616908432168CA6841F20C639A43024379
:1033C000CA6020684169A26921F4407111434161DA
:1033D0001E492068884202D1FEF71AFC01E0FEF780
:1033E00007FC00EBC00101EB001260686421800063
:1033F000B2FBF0F3B3FBF1F36FF018067343B2FBCB
:10340000F0F5B2FBF0F605EB8305322303EB05156F
:10341000B5FBF1F5B6FBF1F605F0F00505EB061589
:10342000B2FBF0F6B2FBF0F0B0FBF1F06FF0180277
:10343000504306EB800003EB0010B0FBF1F0216875
:1034400000F00F002844886070BD00000038014083
:1034500081628285C28500214164222180F8421068
:10346000016921B10168CA6842F48072CA600168CA
:103470004A6942F001024A610068C16841F02001D6
:10348000C160002070472DE9F843984617460D4665
:103490000446089E24E0701C22D0FEF72BF9A0EB16
:1034A0000800B0421AD8CEB12068C168490717D5C4
:1034B000802D15D0402D13D00168C94309070FD4C2
:1034C00001680025406800902046FFF7DDFE0820D7
:1034D000606484F840500120BDE8F8830320FBE7D6
:1034E0002068006835EA000004D00020B842D2D03D
:1034F0000020F1E70120F9E70148FEF77FBE000058
:10350000040100200148FEF779BE00004C010020B4
:103510000148FEF773BE000094010020FEE7090792
:10352000090E002804DB00F1E02080F80014704749
:1035300000F00F0000F1E02080F8141D704700211A
:103540004FF07E5002F0A0BC012102F01EBF00210E
:10355000084602F099BC00002DE9F041804C0D4670
:1035600006463221206B00F051FB00286FD145F256
:10357000640C7C4800230127A6EB0C0100F1120229
:10358000664572D02FDC45F2260EA6EB0E0CE9B292
:10359000764555D015DC45F2160CA6EB0C026645B7
:1035A00077D009DCB6F5A04F3CD06FF4A042B2183A
:1035B00066D0012A6CD13CE00D2A69D00F2A67D170
:1035C00046E0BCF13B0F78D006DCBCF12A0F46D0B8
:1035D000BCF13A0F5CD19DE0BCF13C0F6ED0BCF168
:1035E0003D0F55D1A7E0A22914D008DCA1F19C0120
:1035F000062978D2DFE801F080858A8A8A8A40F637
:103600009C0CA1F69C02614548D004DCA3297DD026
:10361000A42968D17AE0012A51D0A2F5C062FE3A0D
:1036200061D165E0062D5ED882788A425BD08170D8
:1036300053E0322D57D8C2788A4254D0C1704CE042
:103640003C2D50D882798A424DD0817145E085E089
:10365000092D48D8027B8A4245D001733DE0027AA9
:103660008A4240D0017238E0FFE7C17A25B1B94201
:1036700039D00121C17230E0994234D00021F9E7FC
:103680000A2D30D802798A422DD0017125E000E060
:1036900029E045B3C17931B3C3711EE00DB10121F9
:1036A00002E0427C0021F2B1027C8A421BD001740C
:1036B00099B1417C89B143740FE031E04BE00DB129
:1036C000012102E0027C00216AB1427C8A420AD0D8
:1036D000417411B1017C01B1037401F077F9A77055
:1036E000FEF708F82061206BBDE8F04100F0EBBA6E
:1036F0001D48FDF773FAF6E7A07A02EB80004580DB
:10370000F1E7A07A02EB80008580ECE7B61EF0B20C
:10371000A0720DE0A07A02EB80014B808B8007E065
:10372000A07A4FF6FF7302EB8001FF224B808A8064
:1037300001F0A6F9D7E7A17A002002EB810100BFD2
:1037400002EB8003401CD1F80250C0B2C3F8025013
:103750000728F5D3C7E701F0FBF8C4E7BDE8F0811F
:1037600000000020D40300205802002010B51E21C4
:103770000348FCF73CFF02490120088010BD00000F
:10378000E603002010B50B4805221B218270C17092
:1037900002230371002141710A248471C1710172F5
:1037A000417281720124C4720273C1810474417434
:1037B000038010BDD4030020094910B50868401CDF
:1037C00007D01E220748FCF793FE06480088012810
:1037D00005D0FFF7CBFFBDE8104001F0B9B810BD30
:1037E00000FC0008E6030020094910B50868401CE9
:1037F00007D012220748FCF77BFE06480088022803
:1038000005D0FFF7BFFFBDE8104001F0DFB810BDE5
:1038100000F80008D40300202DE9F0410026A0F5AF
:103820000001B1F1FE4F7DD200F500226FF07E0164
:1038300001EBE251C2F3025477184FF07E52A0EB35
:10384000C15602EB045557EA040047D029463046DA
:1038500002F0B2FA80462946304602F0EFFC4146BB
:1038600002F012FB0546014602F01CFC8046454969
:1038700002F018FC444902F09FFA064641462846E9
:1038800002F010FC314602F00DFC0646384602F00C
:10389000DDFB07463D4902F005FC3D49794451F8FE
:1038A000241002F089FA314602F086FA0646012118
:1038B000284602F06AFD314602F07EFA0546384697
:1038C000344902F0EFFB3449794451F8241002F0F6
:1038D00073FA2946BDE8F04102F06EBA4FF07E510E
:1038E000304602F0ABFC05462C4902F0DBFB2C49CC
:1038F00002F062FA294602F0D5FB2A4902F05CFA8E
:10390000294602F0CFFB6FF0824102F055FA0446DF
:103910002946084602F0C6FB214602F0C3FB0146D9
:10392000284600E003E0BDE8F04102F045BA4FF060
:103930007F42B2EB400F03D2BDE8F041FFF704BE77
:10394000B0F1FF4F08BFBDE8F081B0F1004F06D9DC
:103950000120FCF7A2FEBDE8F041FFF7F8BD30F012
:10396000004105D06FF01606172102F00EFD5BE74F
:103970000220FCF792FEFFF7E2FD80F00040BDE878
:10398000F081000066F1CC3EAAAA2A3FF4FD05387A
:103990008C2C00000070313F402C000021ED423E95
:1039A0000A1180BEC1ABAA3EFDF7E8FEFFF7E1FBBE
:1039B000FEF7F2FEFEF7CAFE3A4839494FF4E13607
:1039C00000240160C0E901640C25C460C0E904451D
:1039D0008461C461FEF748FD08B172B6FEE7314864
:1039E000314990380160C0E90164C460C0E9044510
:1039F0008461C461FEF738FD08B172B6FEE729485C
:103A00002A4948380160C0E90164C460C0E904453E
:103A10008461C461FEF728FD08B172B6FEE7214853
:103A200023499C3801600621416040F6FF718160A6
:103A3000FDF766FE08B172B6FEE700F05BF81D48C0
:103A400000F00DF91C4C20631A48103000F007F903
:103A5000184A01216063183A084600F0ABF8154A8D
:103A6000E062A83A0021154800F04EF9114AE061E1
:103A7000843A0021124800F047F90E4A2062603A69
:103A80000021104800F040F90A4A60623C3A0021E7
:103A90000D4800F039F9A06200F03EF8FEE70000A2
:103AA00000480040940100200038014000440040DC
:103AB00000300040B064000800000020ED2F000836
:103AC0005D28000831300008792E000810B5EFF3AA
:103AD000058111B16FF0050403E0002408B101F085
:103AE0001BF9204610BDEFF3058008B101F068BF57
:103AF00001F060BFEFF3058010B16FF00500704773
:103B00000448016811B14FF0FF3070470121016096
:103B1000002070479800002010B5EFF3058010B129
:103B20006FF0050010BD08480168012902D04FF070
:103B3000FF3010BD054A002182F8141D02210160EA
:103B400001F0E0F9002010BD980000200BE000E03B
:103B5000F8B51D466FF003026FF002064FF0000447
:103B6000EFF30583A3B1F0B1E9B1E5B9002200920A
:103B70006A4601F04FFD012817D10098B0B10C49F9
:103B80004FF080500860BFF34F8FBFF36F8F0DE091
:103B900048B141B12A4601F0A1FC012806D025B167
:103BA0006FF0010402E0144600E034462046F8BD00
:103BB00004ED00E0F8B514464FF00005EFF3058280
:103BC00012BB08B301B3A4B1D4E9023263B1502AE5
:103BD0001AD32269C2B1676900FB01F6B74213D359
:103BE000009501F0D6FA07E072B9226962B96269FC
:103BF00052B9002201F0ACFA050005D00CB12168E1
:103C000000E0002101F052F82846F8BD2DE9F0410E
:103C10000D46014621F0010001F001014FF00004C2
:103C2000EFF305820AB1A41F16E048B100296FF036
:103C300001066FF00207294608D001F0F5FD07E004
:103C40006FF0030408E035B1344605E001F030FDC3
:103C50000128F8D100E03C462046BDE8F08170B56F
:103C600005464FF00004EFF3058050BB0DB16868C6
:103C700000E00020C10701D0012600E00026000777
:103C80001FD46DB1D5E9021021B1502819D31EB14E
:103C9000042002E020B114E0012001F04CFA05E01C
:103CA0000EB1042000E0012001F03AFA040008D02F
:103CB0000DB1296800E0002100F0F8FF0EB144F0DA
:103CC0000104204670BD70B5014621F0010001F0ED
:103CD00001014FF00004EFF305820AB1A41F11E0C7
:103CE00028B16FF0020529B101F0D9FB07E06FF0B0
:103CF000030407E000231A46194601F0C1FA01281F
:103D000000D02C46204670BD2DE9FF414FEA01034B
:103D10004FF00005EFF30581039549BB40B38027C1
:103D2000182100244AB3166806B1344696691EB1BC
:103D30003146761E382E02D21679F60703D00020BF
:103D400004B0BDE8F081566906B1B708D2F808C0E2
:103D5000BCF1000F0DD0D5685C2D18D312693AB1B3
:103D600036B18DE806103A46214601F0E4FD039095
:103D70000DE0D6685EB912694AB903AACDE900120E
:103D8000BAB2214601F0AAFD012800D0039503989C
:103D9000D6E700002DE9F05F834600265CA1FCF722
:103DA0004AFB604D002780B1123000E0401C0178D2
:103DB0002029FBD00929F9D00A29F7D00D29F5D0FF
:103DC000042259A1FCF749FB30B3A87840B1FDF7B4
:103DD00091FC2969401A43F6982188421DD3AF709F
:103DE00053A15846FCF727FB544C50B3083081468A
:103DF000032253A1FCF731FB4FF4A04878B106220F
:103E000050A14846FCF729FB68B104224FA148465F
:103E1000FCF723FB60B114E0AF70BDE8F09FA07821
:103E200078B1394608E0A07806280AD0062103E0D8
:103E3000A078052805D00521A170404601F0F4F8CE
:103E4000012644A15846FCF7F6FA40B309308246F1
:103E5000022243A1FCF701FBDFF8089145F250086C
:103E600030B1032236A15046FCF7F7FA50B116E004
:103E7000207A012813D001212172404601F0D4F8A4
:103E8000012207E0207A50B139462772404601F0FE
:103E9000CBF8002220214846FDF727FC012632A15D
:103EA0005846FCF7C8FA70B10A30FCF7B7FAC1B24D
:103EB000322908D8E078884205D0E17045F2020046
:103EC00001F0B2F801262BA15846FCF7B4FA0446DB
:103ED0002CA15846FCF7AFFA07469CB197B104F104
:103EE0000C00FCF79BFAC4B2F81DFCF797FA611EB0
:103EF000C0B2062906D8172804D82C72E871FDF73D
:103F0000F9FBA861002E88D0BDE8F05F00F05EBD2F
:103F10002269734E656564546F5265667265736895
:103F2000223A000000000020747275650000000055
:103F3000226D6F6465223A2200000000D403002045
:103F40006F6666006D616E75616C00006175746FFF
:103F500000000000226C69676874223A22000000A9
:103F60006F6E0000000C01402274656D7053657423
:103F7000223A0000226461794F665765656B223AE8
:103F80000000000022686F7572223A002DE9F041AE
:103F9000134C0F460546E6682068001D00F086FDBC
:103FA000681C07D137B12168BDE8F0410D48091DF3
:103FB00000F0CDBD20683544B5424560216805D28A
:103FC000A06BBDE8F041091D00F0A9BD606B091DA3
:103FD00000F0A5FDA06A854200D2A562BDE8F0818F
:103FE00048000020600900202DE9F041054600F05E
:103FF000BBFD2D4CA068401CA06020682B4F10B169
:10400000606930B32BE02560A068012827D1002625
:1040100006EB860007EB800000F073FD761C382E5F
:10402000F6D3234800F06DFD2148143000F069FDFF
:104030001F48283000F065FD1D483C3000F061FD50
:104040001B48503000F05DFD194860631430A063D8
:1040500005E02068E96AC06A884200D82560606A85
:10406000401C60626864E86A2169884200D9206166
:1040700000EB800007EB8000291D00F068FD00F0D8
:1040800093FD606900280CD02068E96AC06A884204
:1040900007D208494FF080500860BFF34F8FBFF33D
:1040A0006F8FBDE8F081000048000020B0040020C0
:1040B0001009002004ED00E038B500F055FD104C6B
:1040C0002068C8B90F4800F01CFD0E48143000F0FD
:1040D00018FD0C48E060143020610A4B0020F03BD2
:1040E000009003F1500210210A2001F052F82060E4
:1040F00010B105A100F0DAFDBDE8384000F054BD74
:1041000084000020640A0020546D725100000000F9
:1041100030B4026C0B46002A0BD0C1681144C16058
:104120008468A14201D30168C16030BC1846FCF725
:10413000DFB930BC70472DE9F041856B1746044666
:104140000026026C82B1C7B1E068FCF7D1F9E168E2
:10415000206C091AE1602268914202D2A168081A13
:10416000E060022F16D017E02068A8B9A06801F01F
:1041700093FC06460020A0600EE06068FCF7B8F9EA
:10418000216C606808446060A168884204D320689C
:10419000606001E005B16D1E6D1CA5633046BDE891
:1041A000F08110B5044690F8590058B101280CD0A0
:1041B00002280FD0502080F31188BFF34F8FBFF338
:1041C0006F8FFEE7206B00F003FD2046BDE8104036
:1041D00000F0FEBC10BD000010484FF42051420713
:1041E00006D0C01D0D4920F00700411AC1F520512D
:1041F0000B4A00230144C2E900030839183A21F0B0
:10420000070111604B600B600B1AC0E9001393604B
:104210004FF000405360506170470000441100208F
:10422000B4000020144E154CA6F29C474FF0805865
:10423000DFF84C9012E000BF00F096FCF068C56813
:10424000281D00F033FCA068401EA0606068401E7E
:10425000606000F0A9FC2846FFF7A3FF6068002813
:10426000EAD138680128F9D9C9F80080BFF34F8F27
:10427000BFF36F8FF2E700004C09002048000020D8
:1042800004ED00E0002807D00021816001600B46AA
:104290000A46C16000F0F4BF7047000070B51D46CB
:1042A000049C51B1C4F80020C4E90F01012120464B
:1042B00000F0A2FF84F84C5070BD2460F4E70000C9
:1042C0002DE9F05F8846DDE90B94154683469100A1
:1042D0009A460A9EA522206BFCF781F96FF0030134
:1042E000206B01EB8501084420F00707780707D011
:1042F000502080F31188BFF34F8FBFF36F8FFEE71D
:104300000025B8F1000F0FD05FF00000221818F858
:10431000001082F8341018F8001011B1401C102859
:10432000F4D384F8435001E084F83450382E00D39D
:104330003726E662C4E91365201D00F0EDFB04F1A9
:10434000180000F0E9FB2461C6F138006462A06146
:10435000656584F8585052465946384600F066FA6A
:104360002060B9F1000F01D0C9F80040BDE8F09F0E
:1043700030B5114900E011460A688242FBD34B6810
:104380005C18844203D1406818444860084643687A
:104390001C18944209D1084C183C2468A24209D048
:1043A00052681A4442600A6812680260814200D072
:1043B000086030BD0460F9E7B400002070B5002447
:1043C00041600B4D0061914206D8D11A8269914239
:1043D00006D2011D286907E09A4203D2994201D30F
:1043E000012403E0011DE86800F099FB204670BD40
:1043F0008400002010B5044600F0B6FBA06B28B185
:104400005FF0000400F0D0FB204610BD0124F9E766
:1044100030B589B03C4D6EE00498002806DADDE93D
:104420000601059A90470498002864DB069C6069A1
:1044300010B1201D00F03AFB03A800F0D7F80246A7
:1044400004980A2857D2DFE800F00505052D334A05
:1044500005052D3394F8280040F0010084F8280069
:104460000599A069059B01442046FFF7A7FF68B3A3
:10447000216A2046884794F8280040073BD5002051
:1044800000900598A169002342181946204601F0C2
:1044900049FCD8B9502080F31188BFF34F8FBFF388
:1044A0006F8FFEE714F8280F20F00100207022E043
:1044B00094F8280040F0010084F828000598A061D5
:1044C00028B1811813462046FFF778FF13E05020EB
:1044D00080F31188BFF34F8FBFF36F8FFEE794F81F
:1044E0002800810703D4204600F072FB03E020F08F
:1044F000010084F82800002204A9286800F0EEFFDB
:10450000002889D109B030BD840000202DE9FC418C
:104510000F46054600F03AFD01A800F067F8044692
:10452000019818B101F06CFBBDE8FC81254EAFB1DC
:1045300030690068D0B30027291B3A46306800F084
:10454000C9FB01F05DFB0028EED11F494FF0805000
:104550000860BFF34F8FBFF36F8FE5E7A542EBD83D
:1045600001F04EFBF0682746C068C468201D00F0CB
:104570009DFA94F82800410719D5A0692B464119E6
:104580003A462046FFF71AFFA8B10020034601462D
:1045900000902A46204601F0C5FB60B9502080F308
:1045A0001188BFF34F8FBFF36F8FFEE707E020F056
:1045B000010084F82800216A20468847B4E70127D3
:1045C000BAE700008400002004ED00E00648416BDB
:1045D000096829B1416BC968C96849688162704737
:1045E0004FF0FF31FAE700004800002070B50546A3
:1045F00001F0E0F9064E0446B068844203D200F0B0
:1046000009F8012000E0002028602046B46070BD59
:1046100084000020F8B5194D20E0C068C468066821
:10462000201D00F043FA216A2046884794F82800AC
:10463000400713D5A0693044B04206D924616060B8
:10464000211DE86800F06BFA08E0002003460146EF
:1046500000903246204601F065FB38B1E8680168F9
:104660000029DAD12969C5E90310F8BD502080F38B
:104670001188BFF34F8FBFF36F8FFEE784000020D8
:1046800008484068401C4FF0500080F3118804D067
:10469000BFF34F8FBFF36F8FFEE7BFF34F8FBFF3B3
:1046A0006F8FFEE7BC000020074CE068016841B155
:1046B000C0680021D0F80000FFF728FFFFF7A8FE30
:1046C000F3E701210020F7E7840000202DE9F04105
:1046D000044600F049FA94F9455004F1240609E033
:1046E000606A48B1304601F053FA08B100F088FB27
:1046F0006D1E6DB2002DF3DC4FF0FF3684F845607F
:1047000000F052FA00F030FA94F9445004F1100726
:1047100009E0206948B1384601F03AFA08B100F0E2
:104720006FFB6D1E6DB2002DF3DC84F84460BDE8B4
:10473000F04100F039BA00002DE9F04105460027AC
:1047400000F024FC324E306808B9FFF745FD70696F
:1047500005424ED1C5B3083568070ED005F00700F5
:10476000C0F108000544680707D0502080F3118885
:10477000BFF34F8FBFF36F8FFEE72DB37068854295
:1047800037D82348183001460C6801E020460C4613
:104790006168A94202D221680029F7D131688C42B0
:1047A00027D007682168016060680837411B10291D
:1047B0000FD96019420708D0502080F31188BFF349
:1047C0004F8FBFF36F8FFEE713E041606560FFF727
:1047D000CFFD61687068401A7060B268904200D284
:1047E000B060706901430020C4E90001F068401C1A
:1047F000F06001F005FA780707D0502080F31188A7
:10480000BFF34F8FBFF36F8FFEE73846BDE8F081EF
:104810009C0000200449086818B10868026D521C09
:1048200002650868704700004800002010B5031FAB
:104830004FF080741C601B1F21F001011960191FCB
:10484000024B0B60143940380A6010BD81460008E5
:1048500070B52948FCF7B4FC0A212748FCF712FC84
:10486000C0BB2548FCF750FB01F008FC234D29464E
:1048700001F018FC224901F007FB04462149A0F58C
:104880000000884226D22146284601F0D7FC1E4E61
:1048900005463146204601F005FC294601F0F4FAB0
:1048A0001A4C314601F0F0FAFEF7B6FF214601F04E
:1048B000EBFA174901F080FA01464FF07E5001F003
:1048C000E3FA144901F0BAFC134CA04202D2134996
:1048D000884201DDFF2070BD4FF040454FF07C5114
:1048E00001F06AFA294601F067FAA04200D30020DD
:1048F00001F08CFBC0B270BDC800002033335340C0
:1049000000F07F453333D33F00401C4600E076453E
:104910000FCF5B3B339388430000808000007042E0
:104920001CB508A10722D1E90001CDE900016946C3
:104930000648FCF7ABF90548072269467C30FCF7CE
:10494000A5F91CBD5AA5048300100400DC01002059
:104950002DE9F041DFF8648086B09621D8F8340064
:10496000FFF754F9002826D1FCF798FD14493420AC
:10497000C8600020009001900490124D0120CDE904
:10498000025004A96846FCF7EBFC70B90E4E0827EC
:104990005FF0000405EB840156F824200023022078
:1049A000FCF73CFD641CBC42F4D3FCF72DFDD8F8A9
:1049B0003400FFF788F906B0BDE8F0810000002060
:1049C0000020024000FC0008E60300202DE9F04131
:1049D000DFF86C8086B09621D8F83400FFF716F91E
:1049E00000282AD1FCF75AFD1649C889401CC88105
:1049F00015493420C8600020009001900490134DA8
:104A00000120CDE9025004A96846FCF7A9FC70B961
:104A10000C4E05275FF0000405EB840156F82420B6
:104A200000230220FCF7FAFC641CBC42F4D3FCF720
:104A3000EBFCD8F83400FFF746F906B0BDE8F0818A
:104A400000000020D40300200020024000F80008ED
:104A5000421E072A01D2172901D900207047074AB0
:104A600002EB8000801E102901D2008801E04088FE
:104A70001039C84000F0010070470000E603002034
:104A800010B507280ED2084901EB80044FF4A2406C
:104A9000618800F0C9FAA188BDE8104045F2011014
:104AA00000F0C2BA10BD0000E6030020D0E90132D8
:104AB00001699A60D0E901235A604A68824201D1B3
:104AC00082684A60002202610868401E0860086827
:104AD00070470000034B036003F15C000860802016
:104AE000106070478C0A0020044B036003F15C00E7
:104AF00008604FF48070106070470000E80C0020E0
:104B0000704700F108014FF0FF32C0E90112C160A7
:104B1000016100210160704700210161704730B5DB
:104B20000B685A1C02D000F1080202E0026904E09E
:104B30002246546825689D42FAD953684B609960B3
:104B40008A60516008610168491C016030BD42689B
:104B50004A6093688B60936859609160086101684E
:104B6000491C016070470000502080F31188BFF39A
:104B70004F8FBFF36F8F0A494868401C4860012877
:104B80000CD10848006810F0FF0F07D0502080F3C8
:104B90001188BFF34F8FBFF36F8FFEE770470000A0
:104BA000BC00002004ED00E00849486828B1401E20
:104BB000486001D180F311887047502080F311883C
:104BC000BFF34F8FBFF36F8FFEE70000BC000020E4
:104BD00070B500282AD0164DA0F1080460686969F4
:104BE000084207D1502080F31188BFF34F8FBFF3E5
:104BF0006F8FFEE722683AB1502080F31188BFF32F
:104C00004F8FBFF36F8FFEE78843606000F0BEF9FF
:104C100060686968084468602046FFF7A9FB286956
:104C2000401C2861BDE8704000F0EABF70BD000084
:104C30009C0000204FF0E0200021016181610549C6
:104C40004FF47A720968B1FBF2F1491E4161072104
:104C5000016170474400002010B5FBF7F1FA1149DB
:104C600010280ED300F1E02090F8F0030A7890426B
:104C700007D2502080F31188BFF34F8FBFF36F8F9F
:104C8000FEE709480068896800F4E060884207D9B7
:104C9000502080F31188BFF34F8FBFF36F8FFEE773
:104CA00010BD0000BC0000200CED00E010B5084B6A
:104CB000002200BF53F832401CB1521C082AF9D31D
:104CC00010BD43F8321003EBC201486010BD000074
:104CD0007004002070B515460E460446FFF744FFE9
:104CE00094F944100020491C01D184F8440094F93F
:104CF0004510491C01D184F84500FFF755FFA06B12
:104D000028B92A46314604F1240000F097F82046DD
:104D1000BDE87040FFF7DABC10B5020014D00F48B0
:104D2000006B38B1502080F31188BFF34F8FBFF371
:104D30006F8FFEE700F02AF900211046FFF726F9F1
:104D400000F05EFF002807D105494FF08050086051
:104D5000BFF34F8FBFF36F8F10BD000048000020DE
:104D600004ED00E070B50D4604000BD095B11E4A6D
:104D7000106BB8B1502080F31188BFF34F8FBFF391
:104D80006F8FFEE7502080F31188BFF34F8FBFF382
:104D90006F8FFEE7502080F31188BFF34F8FBFF372
:104DA0006F8FFEE700F0F2F8D2682368591993423A
:104DB00004D98B420AD9914202D807E08B42FAD932
:104DC000881A21600021FFF7E1F800E0216000F07F
:104DD00017FF002807D105494FF080500860BFF346
:104DE0004F8FBFF36F8F70BD4800002004ED00E0CF
:104DF00002490A6A0260C9684160704748000020A1
:104E000001490120C86170474800002010B50C46D8
:104E100050B1094909681831FFF781FE2046BDE805
:104E200010400121FFF7B2B8502080F31188BFF382
:104E30004F8FBFF36F8FFEE74800002070B5144618
:104E40000D4668B10A4909681831FFF780FE0CB1B8
:104E50004FF0FF3521462846BDE87040FFF796B871
:104E6000502080F31188BFF34F8FBFF36F8FFEE7A1
:104E70004800002070B504003ED0226DA2B1E06C65
:104E8000884200D30146E06A884235D0012A33D1F6
:104E90001A4D2A6894420FD1502080F31188BFF335
:104EA0004F8FBFF36F8FFEE7502080F31188BFF361
:104EB0004F8FBFF36F8FFEE7E162A269002A02DB2A
:104EC000C1F13801A1610E4E00EB8000616906EB73
:104ED0008000814210D1201DFFF7E8FDE06A2969BA
:104EE000884200D9286100EB800006EB8000211D7C
:104EF000BDE87040FFF72BBE70BD000048000020E9
:104F0000B004002030B587B00024039405AA04A99A
:104F100003A80494FFF7DEFDDDE903010094CDE969
:104F20000110002315A11748059A00F004FD164D45
:104F30000028E8621FD000F0C5FE012809D0401CFF
:104F400019D1502080F31188BFF34F8FBFF36F8FBB
:104F5000FEE7502080F31188BFF34F8FBFF36F8FB0
:104F60004FF0FF30A86201206861EC6007B0BDE837
:104F7000304000F06BB807B030BD000049444C45EC
:104F80000000000025420008480000200248016B94
:104F9000491C0163704700004800002010B5204CF8
:104FA000206B10B10120E06110BD0020E06120689D
:104FB0004FF0A531006B02688A4208D142688A42EC
:104FC00005D182688A4202D1C068884204D0216833
:104FD00020683431FFF794FD2069124901E0B8B12F
:104FE000401E00EB800251F82220002AF7D000EB8F
:104FF000800201EB820101F108034A6852684A60AD
:105000009A4201D152684A60D1682160206110BD86
:10501000502080F31188BFF34F8FBFF36F8FFEE7EF
:1050200048000020B004002070B50C460A46054632
:1050300001460548FBF738FE22462946BDE8704088
:1050400001487C30FBF730BEDC0100201CB526494E
:1050500008780190FF20087008788DF800009DF80E
:1050600000009DF8002000F0F000904207D0502092
:1050700080F31188BFF34F8FBFF36F8FFEE79DF86A
:1050800000001A4C00F0500020700720A06005E0DE
:105090009DF8002052008DF80020401E9DF8002051
:1050A0001206F5D4A060032807D0502080F31188A1
:1050B000BFF34F8FBFF36F8FFEE74FF44070A060D8
:1050C000019808700A48016841F4700101600168A4
:1050D00041F070410160FFF7ADFD00206060FBF71B
:1050E00079F800201CBD000000E400E0BC000020B6
:1050F00020ED00E010B5502080F31188BFF34F8FF2
:10510000BFF36F8F00F064FC18B104494FF080507A
:105110000860002080F3118810BD000004ED00E05D
:1051200010B502460021012000F012F80446FFF7F6
:10513000A9F8204610BD38B50B4600220090114654
:10514000012000F026F80446FFF79CF8204638BD01
:10515000F8B517460E46050013D005FB06F0503093
:10516000FFF7EAFA04000AD0002084F8460004F1B0
:1051700050023B46314628460094FFF78FF8204600
:10518000F8BD502080F31188BFF34F8FBFF36F8FAE
:10519000FEE738B5049D18B153B1CAB181B120E022
:1051A000502080F31188BFF34F8FBFF36F8FFEE75E
:1051B000502080F31188BFF34F8FBFF36F8FFEE74E
:1051C000502080F31188BFF34F8FBFF36F8FFEE73E
:1051D00039B1502080F31188BFF34F8FBFF36F8F29
:1051E000FEE750241C46012384F846302B460094E9
:1051F000FFF754F8204638BD70B50D46040025D0A1
:10520000FFF7B2FCD4E90F20216802FB0011A16076
:105210000021A163216861600A46D4E90F01401EA4
:1052200000FB0121E16021464FF0FF3001F8440FFF
:10523000487004F110008DB1FFF763FC04F1240005
:10524000FFF75FFCFFF7B0FC012070BD502080F33A
:105250001188BFF34F8FBFF36F8FFEE721690029DD
:10526000F0D000F095FC0028ECD004494FF08050BD
:105270000860BFF34F8FBFF36F8FE3E704ED00E0EB
:105280002DE9FF4782B01D468A464FF00008040012
:1052900003D0BAF1000F08D011E0502080F311883C
:1052A000BFF34F8FBFF36F8FFEE7206C38B15020F4
:1052B00080F31188BFF34F8FBFF36F8FFEE7022D8E
:1052C0000AD1E06B012807D0502080F31188BFF38A
:1052D0004F8FBFF36F8FFEE700F05EFB3F4F4FF045
:1052E00000094FF0805648B9049838B1502080F337
:1052F0001188BFF34F8FBFF36F8FFEE7FFF734FCCA
:10530000A06BE16B884207D3022D05D00498D0B181
:10531000B8F1000F1AD01EE02A4651462046FEF78B
:105320000AFF616A19B104F1240000F031FC20B1D8
:105330003E60BFF34F8FBFF36F8FFFF735FC012047
:1053400006B0BDE8F087FFF72FFC22E06846FFF7C4
:105350004FFD4FF00108FFF727FCFFF717FEFFF79F
:1053600003FC94F94400401C01D184F8449094F962
:105370004500401C01D184F84590FFF715FC04A9B5
:10538000684600F071FA30B12046FFF79FF900F04F
:1053900037FC0020D4E7FFF7E7FBA06BE16B884206
:1053A00013D1FFF701FC04F110000499FFF72EFD63
:1053B0002046FFF78BF900F023FC00289ED13E60C9
:1053C000BFF34F8FBFF36F8F98E7FFF7EDFB2046DA
:1053D000FFF77CF900F014FC90E7000004ED00E01A
:1053E0002DE9F0471F4690468946040003D0B9F1E5
:1053F000000F08D011E0502080F31188BFF34F8FC9
:10540000BFF36F8FFEE7206C38B1502080F3118816
:10541000BFF34F8FBFF36F8FFEE7022F0AD1E06B10
:10542000012807D0502080F31188BFF34F8FBFF3BE
:105430006F8FFEE7FFF710FC5020EFF3118680F32B
:105440001188BFF34F8FBFF36F8FA06BE16B884262
:1054500006D3022F04D0002086F31188BDE8F08720
:1054600094F94550A06B3A4649462046FEF763FE44
:10547000681C04D06D1C84F845500120ECE7606A7C
:105480000028FAD004F1240000F082FB0028F4D0B8
:10549000B8F1000FF1D00121C8F80010EDE710B508
:1054A000040009D000F072FAA168884214D1E068C3
:1054B000401EE06008D00DE0502080F31188BFF35B
:1054C0004F8FBFF36F8FFEE700231A461946204621
:1054D000FFF7D6FE012010BD002010BD2DE9F747D3
:1054E000002683B08A46040003D0BAF1000F08D02A
:1054F00011E0502080F31188BFF34F8FBFF36F8FFF
:10550000FEE7206C38B1502080F31188BFF34F8F35
:10551000BFF36F8FFEE700F03FFADFF8F4804FF043
:1055200000094FF0805748B9059838B1502080F3F2
:105530001188BFF34F8FBFF36F8FFEE7FFF714FBA8
:10554000A56BC5B151462046FEF7E2FD6D1EA56371
:10555000206950B104F1100000F01AFB28B1C8F81E
:105560000070BFF34F8FBFF36F8FFFF71DFB01205C
:1055700006B0BDE8F087059808B11EB106E0FFF758
:1055800013FB27E06846FFF733FC0126FFF70CFB0F
:10559000FFF7FCFCFFF7E8FA94F94400401C01D146
:1055A00084F8449094F94500401C01D184F845905A
:1055B000FFF7FAFA05A9684600F056F900282046D8
:1055C0000AD0FFF783F800F01BFB2046FEF712FF1E
:1055D0000028B3D00020CBE7FEF70CFF90B104F118
:1055E00024000599FFF712FC2046FFF76FF800F042
:1055F00007FB0028A2D1C8F80070BFF34F8FBFF39C
:105600006F8F9BE72046FFF761F800F0F9FA95E706
:1056100004ED00E02DE9F04790468946040003D0F0
:10562000B9F1000F08D011E0502080F31188BFF3CA
:105630004F8FBFF36F8FFEE7206C38B1502080F39F
:105640001188BFF34F8FBFF36F8FFEE7FFF704FBA7
:105650005020EFF3118680F31188BFF34F8FBFF313
:105660006F8FA76BF7B194F9445049462046FEF777
:105670004FFD7F1EA763681C04D06D1C84F8445046
:10568000012010E020690028FAD004F1100000F099
:105690007FFA0028F4D0B8F1000FF1D00121C8F84A
:1056A0000010EDE7002086F31188BDE8F0870000C8
:1056B0002DE9F343002683B00400354609D0206C61
:1056C00078B1502080F31188BFF34F8FBFF36F8FF5
:1056D000FEE7502080F31188BFF34F8FBFF36F8F29
:1056E000FEE700F059F9DFF83C814FF000094FF078
:1056F000805748B9049838B1502080F31188BFF31F
:105700004F8FBFF36F8FFEE7FFF72EFAA06BC8B184
:10571000401EA063206810B9FFF77CF8A0602069E4
:1057200050B104F1100000F033FA28B1C8F800704D
:10573000BFF34F8FBFF36F8FFFF736FA012005B02D
:10574000BDE8F083049808B166B10FE03DB1502088
:1057500080F31188BFF34F8FBFF36F8FFEE7FFF722
:1057600023FA5DE06846FFF743FB0126FFF71CFACA
:10577000FFF70CFCFFF7F8F994F94400401C01D145
:1057800084F8449094F94500401C01D184F8459078
:10579000FFF70AFA04A9684600F066F800282046D8
:1057A00012D0FEF793FF00F02BFA2046FEF722FE00
:1057B0000028A9D09DB3FFF7D7F9606A50B3206BDA
:1057C0000068C0F1380126E0FEF714FEE0B1206861
:1057D00038B9FFF7C9F9A06800F09EF90546FFF750
:1057E000E3F904F124000499FFF710FB2046FEF7CB
:1057F0006DFF00F005FA002886D1C8F80070BFF3ED
:105800004F8FBFF36F8F7FE72046FEF75FFF00F0FB
:10581000F7F979E70021A068FFF72CFB9FE7FFE786
:1058200000208CE704ED00E070B50D46040009D0BF
:1058300000F0ACF8A16888420CD1E068401CE06040
:10584000012070BD502080F31188BFF34F8FBFF34C
:105850006F8FFEE729462046FFF72AFF0028F0D089
:10586000E168491CE16070BD2DE9F0410C4605007E
:1058700011D0C4B1FFF778F9174BDA686E68206869
:10588000911B471C17D02F681B6A9F4219D0964264
:1058900017D8012410E0502080F31188BFF34F8FF8
:1058A000BFF36F8FFEE7502080F31188BFF34F8F57
:1058B000BFF36F8FFEE70024FFF776F92046BDE8BF
:1058C000F081884205D9401A20602846FFF790FAF7
:1058D000F1E700202060DCE7480000202DE9FF5FB1
:1058E0008346DDE90E87994616468A469000FEF704
:1058F00023FF05001CD05C20FEF71EFF040014D01F
:105900000020256384F85900CDE90240CDE90087E5
:105910004B46324651465846FEF7D2FC2046FEF72B
:1059200063FB012004B0BDE8F09F2846FFF750F963
:105930004FF0FF30F6E7F0B585B0DDE90B640A9D66
:10594000A6B1DCB15C2700972663022684F8596073
:10595000002604AFCDE90246CDE90057FEF7B0FCC2
:105960002046FEF741FB049805B0F0BD502080F3BF
:105970001188BFF34F8FBFF36F8FFEE7502080F386
:105980001188BFF34F8FBFF36F8FFEE701480068A8
:1059900070470000480000200548416919B1006BBC
:1059A00018B10020704701207047022070470000A6
:1059B000480000200148C0687047000048000020EF
:1059C00010B5FFF749F90148C06810BD4800002034
:1059D0002DE9F0412E4C0027206B28B1A069401C16
:1059E000A0613846BDE8F081E668761CE66013D118
:1059F000606B006838B1502080F31188BFF34F8F7F
:105A0000BFF36F8FFEE7606BA16B6163A063206AD9
:105A1000401C2062FEF7DAFDA06ADFF8788086423B
:105A200009D3606B0068A0B1606BC068C568686826
:105A3000864211D2A0622068C06A00EB800158F84B
:105A40002100012800D90127E0690028C9D00127D9
:105A5000C7E74FF0FF30EDE7281DFFF727F8A86AEA
:105A600018B105F11800FFF721F8E86A21698842AA
:105A700000D9206100EB800108EB8100291DFFF7B0
:105A800066F8E86A2168C96A8842CAD30127C8E76C
:105A900048000020B004002070B504004FF0000161
:105AA00033D01B4D2868844207D0502080F31188E2
:105AB000BFF34F8FBFF36F8FFEE7206D38B1401EED
:105AC0002065E36CE26A9A421FD040B11DE050208D
:105AD00080F31188BFF34F8FBFF36F8FFEE7201D58
