:020000040800F2
:10000000003F002049020008AF2600089F25000895
:10001000AD260008DD0A0008693300080000000072
:10002000000000000000000000000000B101000816
:10003000DF0A000800000000F5010008A52F0008F5
:1000400063020008630200086302000863020008FC
:1000500063020008630200086302000863020008EC
:1000600063020008630200086302000863020008DC
:1000700063020008630200086302000863020008CC
:1000800063020008630200086302000863020008BC
:1000900063020008630200086302000863020008AC
:1000A0006302000841300008630200086302000890
:1000B000630200086302000863020008630200088C
:1000C000630200086302000863020008630200087C
:1000D0006302000845330008513300085D3300080F
:1000E000E10A0008630200086302000800F002F859
:1000F00000F04EF80AA090E8000C82448344AAF174
:100100000107DA4501D100F043F8AFF2090EBAE871
:100110000F0013F0010F18BFFB1A43F0010318473B
:100120000061000020610000103A24BF78C878C147
:10013000FAD8520724BF30C830C144BF04680C60ED
:10014000704700000023002400250026103A28BF35
:1001500078C1FBD8520728BF30C148BF0B60704739
:10016000642900F01F81752900F01C81732900F0BB
:100170000883002070471FB500F0E2FB0400002058
:10018000002105F0C9FB401C60601FBD10B510BD0B
:1001900000F0B1FB1146FFF7EEFF03F063FA00F049
:1001A000E1FB03B4FFF7F2FF03BC00F025FC000005
:1001B000224B19680868B0E8F00F80F30988BFF394
:1001C0006F8F4FF0000080F311884EF00D0E7047D6
:1001D0000000000006480068006880F3088862B6E6
:1001E00061B6BFF34F8FBFF36F8F00DF00BF00BF5B
:1001F00008ED00E0EFF30980BFF36F8F0F4B1A6833
:1002000020E9F00F106008B54FF0500080F311881E
:10021000BFF34F8FBFF36F8F04F07AFC4FF00000F5
:1002200080F31188BDE8084019680868B0E8F00F4D
:1002300080F30988BFF36F8F704700BF3C00002038
:10024000EFF30580704700000948804709480047E0
:10025000FEE7FEE7FEE7FEE7FEE7FEE7FEE7FEE776
:10026000FEE7FEE704480549054A064B70470000D3
:100270003F300008ED00000800390020003F00205A
:10028000003B0020003B0020B2F120030AD5C2F160
:10029000200320FA02F001FA03F321FA02F140EA06
:1002A0000300704721FA03F04FF00001704700008F
:1002B0000FB47CB50C0009AA009001D02044401E68
:1002C000084B7B4469460190089800F028FA0546DF
:1002D0001CB10020694600F035FA28467CBC5DF868
:1002E00014FB0000890400002DE9F0410E4604468D
:1002F000002020622046E168884730B3252805D0D9
:10030000D4E901219047206A401CF2E7E1682046C9
:1003100000278847050018D0A5F14100192802D808
:1003200020354FF400673246294620462760FFF704
:1003300017FF40B1012804D0F61D26F00706083645
:10034000D8E7361DD6E72846DAE7206ABDE8F0810F
:1003500070B50C460546012A05D02878800600D5E0
:10036000EA69002302E0012305E05B1C934202D20C
:10037000E05C0028F9D1A869E618C01AA861286ACB
:10038000184428622846AFF3008004E0D5E9012133
:1003900014F8010B9047B442F8D32846AFF300801D
:1003A00070BD00002DE9F041064600241068752953
:1003B000314616A510D0AFF30080002802DA404283
:1003C00013A507E031688A0701D512A502E04907A5
:1003D00004D511A5012401E0AFF3008000210A2219
:1003E00006F1240709E0B0FBF2FCB0FBF2F302FBDC
:1003F0001C00303078541846491C0028F3D123469D
:100400002A463046BDE8F04100F02BB9000000005C
:100410002D0000002B0000002000000070B50646F3
:1004200000F010F90468054630460A22002100F069
:10043000ACF92C6070BD30B505460B462A4613F862
:10044000014B12F8010B08B1A042F8D01CB10028F2
:1004500002D06D1CF1E7284630BD40EA010370B5BB
:100460009B072ED14FF00136042A2AD308C810C9A1
:100470009D1B9D43121F15EAC61517D0D8B2E1B2D5
:10048000401A50EA056110D198B2A1B2401A50EA60
:1004900005410AD123F07F4024F07F41401A50EA01
:1004A000052102D1180EA0EB146070BDA342DBD071
:1004B00018BA21BA884201D9012070BD4FF0FF302F
:1004C00070BD0AB9002070BD10F8013B11F8014B56
:1004D00063B1A3420AD1521E08D010F8013B11F8B3
:1004E000014B1BB1A34201D1521EEDD1181B70BDAF
:1004F000032A40F2308010F0030C00F0158011F850
:10050000013BBCF1020F624498BF11F801CB00F827
:10051000013B38BF11F8013BA2F1040298BF00F87B
:1005200001CB38BF00F8013B11F0030300F0258038
:10053000083AC0F0088051F8043B083A51F804CB5F
:10054000A0E80810F5E7121D5CBF51F8043B40F825
:10055000043BAFF30080D20724BF11F8013B11F830
:1005600001CB48BF11F8012B24BF00F8013B00F874
:1005700001CB48BF00F8012B704710B5203AC0F0FE
:100580000B80B1E81850203AA0E81850B1E8185094
:10059000A0E81850BFF4F5AF5FEA027C24BFB1E8D1
:1005A0001850A0E8185044BF18C918C0BDE8104042
:1005B0005FEA827C24BF51F8043B40F8043B08BF4B
:1005C0007047D20728BF31F8023B48BF11F8012B12
:1005D00028BF20F8023B48BF00F8012B704702F00B
:1005E000FF0343EA032242EA024200F008B94FF057
:1005F000000200B5134694469646203922BFA0E873
:100600000C50A0E80C50B1F12001BFF4F7AF09077E
:1006100028BFA0E80C5048BF0CC05DF804EB89006F
:1006200028BF40F8042B08BF704748BF20F8022BB2
:1006300011F0804F18BF00F8012B704770477047CA
:1006400070470000004870479C38002010B5FFF745
:10065000F9FF006810BD10B50446FFF7F3FF046012
:1006600010BD2DE9F0470D4699469246044600F12B
:1006700024080168880604D5E06921F01001216092
:1006800000E00120A84201DD471B00E00027A1692E
:100690007A1902EB0900081AA0612078C00602D47A
:1006A0002046AFF30080002608E0D4E901211AF8C3
:1006B00006009047206A401C761C20624E45F4DB01
:1006C0002078C0060AD52046AFF3008006E0D4E9C2
:1006D000012130209047206A401C2062381EA7F17B
:1006E0000107F4DC07E0D4E9012118F80500904780
:1006F000206A401C2062281EA5F10105F3DC20467B
:10070000AFF300802078000602D50220BDE8F08714
:100710000120FBE701694A1C02610878704700B5B7
:100720008FB0CDE901310021059105497944CDE92A
:10073000031011466846FFF7D7FD0FB000BD00005B
:10074000E5FFFFFF0A6802F8010B0A607047D1E974
:1007500000239A4202D2531C0B601070704710B5F0
:10076000436913B1AFF3008001E0FFF7F1FD012011
:1007700010BD127800F124010A7000224A70012293
:10078000EDE711684FF0FF32E9E72DE9F0479146B8
:100790000F4680460446002614F8015B2DB100F098
:1007A00053F80068405DC007F6D12B2D02D02D2DE7
:1007B00018D0641E4A463946204600F04DF827B14D
:1007C0003968A14201D1C7F800804FF002047105D9
:1007D0000BD54042002803DDFFF734FF0460A0077B
:1007E000BDE8F08746F48066E4E70028F8DAFFF712
:1007F00029FF04606FF00040F2E74FF00002042987
:10080000C0F0128010F0030C3FF4F3AECCF1040CF6
:10081000BCF1020F18BF00F8012BA8BF20F8022B73
:10082000A1EB0C01FFF7E5BE5FEAC17C24BF00F835
:10083000012B00F8012B48BF00F8012B7047000086
:10084000004870479C38002010B500F079F8001D72
:1008500010BD00BFC55000002DE9F05F824615466F
:100860008B4600270AF10104B9460078302801D0F0
:100870009DB113E014F8010B0127782803D0582804
:1008800001D045B10AE00DB1102D07D1002714F8B1
:10089000010B102502E0082500E00A250026B046DD
:1008A0000EE005FB080005FB06F101271FFA80F8A2
:1008B00001EB1046B6F5803F00D3B94614F8010BA2
:1008C000294600F041F80028EBDABBF1000F05D013
:1008D0000FB1641E00E05446CBF80040B9F1000FA0
:1008E00006D0FFF7AFFE02210160C81EBDE8F09FF1
:1008F00048EA0640FAE77546FFF7A2FFAE46050054
:100900006946534620F00700854618B020B5FFF72A
:10091000A9FCBDE820404FF000064FF000074FF063
:1009200000084FF0000B21F00701AC46ACE8C0090D
:10093000ACE8C009ACE8C009ACE8C0098D46704716
:1009400000487047BC3800203A2800D2303820F0E8
:100950002002412A01D3A2F13700884201D34FF08F
:10096000FF30704710B50446AFF300802046BDE865
:100970001040FFF716BC00004FF0013C50F8042B6C
:1009800051F8043B9A4221D1A2EB0C03934313EAA2
:10099000CC1317D150F8042B51F8043B9A4215D1CF
:1009A000A2EB0C03934313EACC130BD150F8042BA6
:1009B00051F8043B9A4209D1A2EB0C03934313EA8A
:1009C000CC13DBD04FF00000704700BFD01A01BA43
:1009D000B1FA81F101F0180122FA01F0CB40C1F126
:1009E0002001DBB2C0B2C01A2CFA01F3D11A914334
:1009F00011EAC311E6D1704701491820ABBEFEE7EA
:100A0000260002007047000070B504460068816847
:100A1000C943C90717D1816821F00101816000F045
:100A200061FD05460AE000BF00F05CFD401B0228A6
:100A300004D920688068C043C00706D02068806859
:100A4000C043C007F0D0002070BDA06A40F0100085
:100A5000A062E06A40F00100E062012070BD000089
:100A6000F8B500260446009600688168C943C907A6
:100A70002DD0816841F00101816016481649006857
:100A8000B0FBF1F000E0401E00900028FBD100F028
:100A900029FD054616E000BF00F024FD401B02289A
:100AA00010D920688068C043C0070BD0A06A40F00E
:100AB0001000A062E06A40F00100E06284F8246067
:100AC0000120F8BD20688068C043C007E4D1002041
:100AD000F8BD00003800002040420F00FEE77047DC
:100AE0004FF4006000F0F8BB06490020C8610648DA
:100AF000016941F004010161016941F040010161B6
:100B0000704700008803002000200240064A0021B0
:100B1000D16106490A6942F002020A614861086926
:100B200040F0400008617047880300200020024028
:100B3000044B0022DA61044A136943F00103136194
:100B400001807047880300200020024014480022E2
:100B5000C168CB06134904D5CA6942F00202CA61D2
:100B60001022C3685B0705D5CB6943F00103CB6155
:100B700042F00402C369DB0707D0CB6943F00403EA
:100B8000CB61C16921F00101C161A2F58071013918
:100B900001D0C2607047C16921F00101C161704795
:100BA000002002408803002070B5054600F09AFC42
:100BB0000646114C09E0681C07D025B100F092FCF4
:100BC000801BA84201D9032070BDE068C007F2D1A4
:100BD000E068800601D52020E060E068C00605D40A
:100BE000E069C00702D1E068400703D5FFF7AEFF18
:100BF000012070BD002070BD00200240F8B5002427
:100C0000009490F824202546012A12D0012280F871
:100C100024204A681F23072A0DD20668776B521ECC
:100C200002EB820293409F430B6893401F4377631C
:100C300019E00220F8BD06680D2A0AD2376BD21FD0
:100C400002EB820293409F430B6893401F4337633C
:100C500009E0F76A0D3A02EB820293409F430B686A
:100C600093401F43F7620A68072306680A2A0AD3DB
:100C7000F7680A3A02EB420293409F438B68934025
:100C80001F43F76008E0376902EB420293409F433D
:100C90008B6893401F4337610A68102A01D0112ADC
:100CA00020D1124B02689A4217D193681B0219D4C3
:100CB000936843F4000393600968102912D10C492A
:100CC0000C4A0968B1FBF2F101EB8101490000E037
:100CD000491E00910029FBD104E0816A41F0200106
:100CE0008162012480F824502046F8BD0024014090
:100CF0003800002040420F000068C06C70470000C0
:100D00002DE9F0414FF0000704003D467ED0A06A77
:100D1000002628B9E66284F82460204600F07EF8B8
:100D20002046FFF771FEA16AC90600D420B1A06A6F
:100D300040F01000A06269E0A16A21F4885141F0FE
:100D40000201A1626268E169237B0A4347EA430129
:100D50000A43A1684FF48077B94209D0012907D02E
:100D60005FF0000194F814C0BCF1010F02D00AE05A
:100D70003946F7E7F3B1A36A43F02003A362E36ABD
:100D800043F00103E3622368D3F804C02CF4694CF8
:100D90004CEA010CC3F804C021688B68DFF870C00E
:100DA00003EA0C0313438B60A168B9420BD00129FD
:100DB00009D00CE0DFF85CC0A3690CEB43330B43B4
:100DC00043F40061DFE7218A0D05A5F58015216850
:100DD000CB6A23F470032B43CB62216889680E4BE6
:100DE0001940914208D1E662A16A21F0020141F066
:100DF0000101A162BDE8F081A06A20F0020040F08C
:100E00001000A062E06A40F00100E0620120F1E71A
:100E1000FDF7E1FF00E0FFFFFE0E1FFF00B585B00C
:100E20000021009101910291039100680E498842CE
:100E300018D10E48816941F400718161816901F422
:100E400000710491816941F0040181618069694602
:100E500000F0040004900120009003200190044859
:100E600000F046FA05B000BD002401400010024029
:100E7000000801402DE9F84300270D46044600977D
:100E800000F030FB804620688168C90508D5A06A5B
:100E900040F02000A06284F824700120BDE8F883AF
:100EA0004168C90503D4C06A10F4700F2AD002202B
:100EB00000F018FC3B490968B1FBF0F620680369B3
:100EC00039490B424FEA61014FEAA1121FD1C368B1
:100ED0004FEA611C13EA0C0F19D103690B4225D1AB
:100EE000C068104222D1142023E0681C0AD02DB122
:100EF00000F0F8FAA0EB0800A84203D920680068C7
:100F0000800725D5206800688007EED52DE00369AD
:100F10000B4202D1C168114206D0026923490A423C
:100F200006D1C068084203D1542002E0292000E025
:100F3000FC204643009816E0681C11D02DB100F04B
:100F4000D1FAA0EB0800A8420AD90098B04207D213
:100F5000A06A40F00400A06284F8247003209DE79A
:100F60000098401C0090B042E6D321686FF0120058
:100F70000860A06A40F40070A06220688068C0F336
:100F8000424007280CD1207B50B9A06A20F4807021
:100F9000A062A06AC00403D4A06A40F00100A0626D
:100FA00000207BE738000020244992244992240045
:100FB00070B5044690F8240001280DD0012084F873
:100FC00024002046FFF74CFD02004FF0000005D042
:100FD00084F82400104670BD022070BDA16A40F262
:100FE0000123994341F48071A1621F4D23681F4979
:100FF000AB4218D10E6816F4702F14D0A66A46F4CE
:101000008016A6620E68760505D5A66A26F40056F7
:1010100046F48056A662A66AF6040AD5E66A26F069
:101020000606E66206E0A66A26F48016A6625E68F8
:10103000E9E7E06284F824006FF00200186020689D
:101040008368C3F34243072B05D1A84208D109683E
:1010500011F4702F04D0816841F480118160B9E7E8
:10106000816841F4A001F9E700280140042401400F
:1010700010B590F821100022022905D004218163C7
:1010800080F82020012010BD01680B6823F00E03BA
:101090000B6001680B6823F001030B6090F840308F
:1010A000C46B012101FA03F3636080F8211080F81A
:1010B0002020104610BD000010B590F8211000242B
:1010C000022903D00421816301243DE001680A68FC
:1010D00022F00E020A6001680A6822F001020A602A
:1010E0001A4A0168914201D1012121E0174A1432C4
:1010F000914201D110211BE0144A2832914201D1C2
:10110000891515E0114A3C32914201D189140FE052
:101110000E4A5032914202D14FF4803108E00B4A1E
:101120006432914202D14FF4801101E04FF080719E
:10113000064A083A5160012180F82110002180F808
:101140002010416B01B18847204610BD08000240C5
:101150002DE9F047054626480F460126017E012964
:101160000FD00121814601762868DFF888804CF293
:101170005034022808D0A2462046FFF715FDA8B13A
:1011800031E00220BDE8F0872046FFF70DFD08BBE7
:101190000120FFF7A9FC2046FFF706FDD8F8101044
:1011A000064621F00401C8F810101CE04FF0FF3093
:1011B0003860AC6811E02046FFF7A8FC5046FFF706
:1011C000F3FCD8F81010060021F00201C8F8101046
:1011D00001D03C6007E004F58064D5E9020100EB32
:1011E0008120A042E7D8002189F818103046C9E7CD
:1011F00088030020002002400348016941F080017B
:101200000161002070470000002002402DE9F05FDE
:1012100007461C4888460024017E15461E460129C3
:1012200009D00121814601764CF2503A5046FFF731
:10123000BBFC18B122E00220BDE8F09F012F02D0D4
:10124000022F00D00427D346DFF83CA02201284615
:101250003146FFF719F881B208EB4400FFF768FC4C
:101260005846FFF7A1FCDAF8102022F00102CAF874
:10127000102018B9641CE4B2BC42E7D3002289F8FC
:101280001820D9E7880300200020024006490020EA
:101290000A69120607D5054A4A60054A4A60096983
:1012A000090600D501207047002002402301674550
:1012B000AB89EFCD10B54FF40061884206D10448E8
:1012C00000F006F9034948700120087010BD0000C5
:1012D0000008014000000020044910B50A680242DD
:1012E00002D00860FFF7E6FF10BD000014040140C3
:1012F0002DE9F84FDFF8B8910024A9F1040B23463B
:101300000F2709F1040AABF1040EC9E00125A5403D
:101310002A40AA427DD1674ED1F804C0ACEB060842
:10132000B44532D014DCBCF1030F3AD009DCBCF177
:10133000000F2AD0BCF1010F1CD0BCF1020F31D13B
:101340001DE0BCF1110F17D0BCF1120F2AD119E02A
:10135000B8F5881F19D006DCB8F5803F15D0B8F570
:10136000801F1FD111E0B8F5001F0ED0B8F5041F83
:1013700018D10AE0CB6815E0CB681B1D12E0CB68E2
:1013800008330FE0CB680C330CE08B682BB1012BDA
:101390004FF0080303D0456104E0042302E0056137
:1013A00000E00023FF2A01D8064601E000F1040610
:1013B0004FEA840501D9A5F12005D6F8008007FA87
:1013C00005FC28EA0C0803FA05F548EA0508C6F802
:1013D00000804D68ED0062D5374DAE6946F00106DC
:1013E000AE61AD6924F0030605F001050095334DAB
:1013F00006EB050CDCF80850A607360F07FA06F8CE
:1014000025EA0805DFF8B880404503D14FF0000811
:1014100017E044E0DFF8AC80404502D14FF001080E
:101420000FE0DFF8A480404502D14FF0020808E049
:10143000DFF89880404502D14FF0030801E04FF0FB
:10144000040808FA06F848EA0508CCF808804D6850
:10145000D9F80060ED024D4601D5164300E09643F1
:101460002E604D68DAF80060AD02554601D516438E
:1014700000E096432E604D68DBF80060AD035D46EA
:1014800001D5164300E096432E604D68DEF80060FB
:10149000ED03754601D5164300E096432E60641CAB
:1014A0000D682A46E5407FF431AFBDE8F88F0000B3
:1014B000080401400000111000100240000001402B
:1014C00000080140000C01400010014000140140E0
:1014D0008068084000D0012070470AB10161704760
:1014E0000904FBE701488068704700002C000020D9
:1014F00070B5040013D021684CF6CC400860216818
:1015000045F255500860D4E9000141602168A068A7
:101510008860FFF7E7FF054641F23C360DE0012009
:1015200070BD00BFFFF7DEFF401BB04205D9206849
:10153000C068800701D0032070BD2068C0688007A4
:10154000F0D121684AF6AA200860002070BD00682A
:101550004AF6AA2101600020704700000248816815
:1015600002781144816070472C000020074810B5B4
:10157000016841F010010160032000F0A1F80F2084
:1015800000F006F800F04AF8002010BD00200240EC
:1015900030B505461C4887B0816941F4006181611E
:1015A000806906A900F40060009001A800F0F8F935
:1015B00000F026FA1549164AB0FBF1F11548491E0C
:1015C0000260416040F2E7320021C0E903218160FE
:1015D000816100F0DDFB040012D10E4800F006FC32
:1015E00004000DD1192000F03DF8102D07D2002283
:1015F0002946192000F044F80748056000E001245E
:1016000007B0204630BD00000010024040420F00ED
:10161000002C01403C030020300000200F4808B59A
:10162000816941F001018161816901F0010100914D
:10163000C16941F08051C161C069002200F0805051
:1016400000900F21901E00F01BF80548416821F022
:10165000E06141F00071416008BD000000100240EF
:1016600000000140002809DB00F01F020121914029
:101670004009800000F1E020C0F800117047000030
:10168000F0B40E4B1B680C46C3F30223C3F10705ED
:10169000042D00D90425191D072901D2002300E0DB
:1016A000DB1E012606FA05F1491E214099409E40A5
:1016B000761E16403143F0BC01F057BE0CED00E041
:1016C000064900F0070208684FF6FF03184040EA99
:1016D0000220034A10430860704700000CED00E050
:1016E0000000FA0510B501460020234C012922D044
:1016F000022939D010291DD161682268D20119D57B
:101700001E48C1F38342C903805C0AD561681B4A45
:10171000C1F34041921E515C194AB2FBF1F14843BA
:1017200001E0184948436168490203D4400003219D
:10173000B0FBF1F010BD226AC2F30121012903D1EF
:10174000920701D5C80310BD022905D1626A92072C
:1017500002D549F6404010BD0329FCD12168890318
:10176000F9D54FF2244010BD00F04AF96168C1F389
:101770008131491C4900DBE700100240706000081D
:1017800000127A0000093D002DE9F8430546007873
:10179000354CC00754D0E0690026C00008D4E06989
:1017A00040F08050E061E069012600F08050009038
:1017B0002E480168C90512D40168804641F4807141
:1017C0000160FFF78FFE074605E000BFFFF78AFEC6
:1017D000C01B642823D8D8F80000C005F6D5206ABD
:1017E00010F4407021D0A98801F4407181421CD0CE
:1017F000206A1F49012220F440700A6000220A601A
:101800002062C00711D0FFF76DFE074641F288380D
:1018100008E000BFFFF766FEC11B414502D9032067
:10182000BDE8F883206A8007F4D5206A696820F44F
:101830004070084320621EB1E06920F08050E061F2
:101840002878800705D56068A96820F440400843DF
:1018500060602878C00605D56068E96820F48000DB
:10186000084360600020DBE7001002400070004089
:10187000400442422DE9F0470F46050061D0434E37
:10188000306800F00700B84209D2306820F0070045
:1018900038433060306800F00700B84251D1286802
:1018A0003B4C810712D5400703D5606840F4E060E7
:1018B00060602878000703D5606840F4605060607D
:1018C0006068A96820F0F000084360602878C007CD
:1018D00028D06868012810D02168022810D0890714
:1018E00000292EDA616821F0030101436160FFF7EE
:1018F000F9FD804641F288390DE021688903EFE760
:101900008901EDE7FFF7EEFDA0EB0801494502D99B
:101910000320BDE8F0876068696800F00C00B0EB58
:10192000810FEFD1306800F00700B8420BD9306862
:1019300020F0070038433060306800F00700B842FC
:1019400001D00120E5E72878400705D56068E968FF
:1019500020F4E060084360602878000706D56068DE
:10196000296920F4605040EAC100606000F058F836
:101970006168084AC1F30311515CC8400649086018
:1019800006480068FFF704FE0020C2E7002002407E
:101990000010024080600008380000203000002065
:1019A0000F2202600C4A536803F00303436053683C
:1019B00003F0F0038360536803F4E063C36052688C
:1019C0004FF4E06303EAD20202610448006800F0C9
:1019D000070008607047000000100240002002402D
:1019E0000448054900684968044AC1F30221515C72
:1019F000C840704738000020001002409060000886
:101A00000448054900684968044AC1F3C221515C91
:101A1000C840704738000020001002409060000865
:101A20000E4A51680E4801F00C03042B11D0082B0C
:101A30000FD10C48C1F38343C903C05C0AD5516878
:101A4000084AC1F34041921E515C054A5043B0FB25
:101A5000F1F070470449484370470000001002400D
:101A600000127A005E60000800093D002DE9F84F81
:101A7000040070D02078C04DC00749D06868C0F31A
:101A80008100012807D06868C0F38100022809D1CD
:101A90006868C00306D52868800339D560680028C7
:101AA000E7D035E06068B0F5803F0BD010B1B0F5FD
:101AB000A02F11D0286820F480302860286820F4F6
:101AC000802002E0286840F480302860606890B18F
:101AD000FFF708FD06460AE0286840F480202860E9
:101AE000F0E700BFFFF7FEFC801B642873D828686E
:101AF0008003F7D50CE0FFF7F5FC064605E000BFD4
:101B0000FFF7F0FC801B6428F0D828688003F7D426
:101B100020789A4E80074FF001094FF0000839D520
:101B2000686810F00C0F07D06868C0F381000228C5
:101B300009D16868C00306D42868800714D52069D5
:101B4000012808D110E02069B0B1C6F80090FFF775
:101B5000C9FC074605E00AE1FFF7C4FCC01B0228E8
:101B6000C4D828688007F7D52868616920F0F80094
:101B700040EAC10028600DE0C6F80080FFF7B2FC23
:101B8000074604E0FFF7AEFCC01B022823D82868F4
:101B90008007F7D4207800072CD57948A169D9B1FE
:101BA000C0F80090FFF79EFC074604E0FFF79AFCA0
:101BB000C01B02280FD8686A8007F7D571484FF418
:101BC000FA510068B0FBF1F0009000BF0098411E90
:101BD0000091FAD20EE080E0C0F80080FFF782FCAE
:101BE000074604E0FFF77EFCC01B022875D8686A30
:101BF0008007F7D42078400760D5E8690027C00047
:101C000008D4E86940F08050E861E869012700F0F5
:101C1000805000905C480168C90513D40168834670
:101C200041F480710160FFF75DFC824606E000BF71
:101C3000FFF758FCA0EB0A0064284ED8DBF8000040
:101C4000C005F5D5E06801280AD008B1052813D0F1
:101C5000286A20F001002862286A20F0040002E0CF
:101C6000286A40F001002862E06841F2883B98B1A0
:101C7000FFF738FC82460BE0286A40F00400286237
:101C8000EEE700BFFFF72EFCA0EB0A0159455AD83A
:101C9000286A8007F6D50CE0FFF724FC824605E0B1
:101CA000FFF720FCA0EB0A0159454CD8286A8007B1
:101CB000F6D41FB1E86920F08050E861E06988B38C
:101CC0006968C1F38101022944D00228C6F8608006
:101CD00004D0FFF707FC044638E034E0FFF702FCCD
:101CE000074604E0FFF7FEFBC01B02282BD828683C
:101CF0008001F7D4206AB0F5803F05D16868A168FB
:101D000020F4003008436860D4E90801084369689A
:101D100021F4741108436860C6F86090FFF7E2FB95
:101D2000044606E025E000BFFFF7DCFB001B0228AD
:101D300009D828688001F7D51BE000BFFFF7D2FB68
:101D4000001B022802D90320BDE8F88F2868800113
:101D5000F4D40EE00128F7D06868226A00F48031DC
:101D6000914204D1616A00F47010884201D00120D0
:101D7000EAE70020E8E700000010024000004242CD
:101D800080044242380000200070004070477047D5
:101D900010B5040003D094F83D0010B107E0012015
:101DA00010BD002084F83C00204600F01EF8022000
:101DB00084F83D00211D206801F048F9012084F8D5
:101DC000460084F83E0084F83F0084F8400084F820
:101DD000410084F8420084F8430084F8440084F809
:101DE000450084F83D00002010BD704790F83D107C
:101DF000012901D001207047022180F83D100168BF
:101E0000CA6842F00102CA6000680B49884208D0E3
:101E1000B0F1804F05D00949884202D00849884274
:101E200004D1816801F00701062903D0016841F05F
:101E30000101016000207047002C014000040040B7
:101E40000008004070472DE9F04104460068C6686C
:101E500005694FF00007A90713D5B10711D5F91E81
:101E6000016101202077206880698007204602D028
:101E7000FFF7E8FF04E000F07EF8204600F07CF871
:101E80002777680716D5700714D521686FF004000E
:101E90000861022020772068806910F4407F204686
:101EA00002D0FFF7CFFF04E000F065F8204600F015
:101EB00063F82777280715D5300713D521686FF009
:101EC00008000861042020772068C0698007204648
:101ED00002D0FFF7B7FF04E000F04DF8204600F015
:101EE0004BF82777E80616D5F00614D521686FF071
:101EF00010000861082020772068C06910F4407F36
:101F0000204602D0FFF79EFF04E000F034F82046A0
:101F100000F032F82777E80708D0F00706D02168EC
:101F20006FF001000861204600F028F8280608D567
:101F3000300606D521686FF0800008612046FFF763
:101F400025FF680608D5700606D521686FF04000A9
:101F50000861204600F01CF8A8060AD5B00608D58E
:101F600021686FF0200008612046BDE8F041FFF7CE
:101F70000EBFBDE8F081704770470000006803495C
:101F8000884201D1FFF7EABA70470000002C0140F7
:101F90007047704770470000F8B50168044608684C
:101FA000CA684B6910F00F0F4FF0000559D003F0CD
:101FB000010602F49077374365D0C10705D0D105FB
:101FC00003D5616C41F001016164410705D5D90772
:101FD00003D0616C41F002016164810705D5D90726
:101FE00003D0616C41F004016164010707D502F080
:101FF0002001314303D0616C41F008016164616CE0
:1020000000293AD0800604D5900602D5204601F07A
:1020100088F820684069616CC0F38010090700D41B
:1020200060B3204601F056F820684069400621D58B
:102030002068143050E8001F21F0400140E80012F1
:10204000002AF5D1E06BA8B16D494163E06BFFF761
:1020500033F8002811D0E06B416B01B0BDE8F040CF
:10206000084783060FD593060DD52046BDE8F840F6
:1020700001F057B82046FFF78DFFF8BD2046FFF767
:1020800089FF6564F8BD266B2023012E7CD1C6062E
:102090007AD5D60678D508684868009048694FF028
:1020A0000206400640D5E16B086840680004000C59
:1020B000E8D0A28D8242E5D9E085886920282DD01C
:1020C00020680C3050E8001F21F4807140E80012B5
:1020D000002AF5D12068143050E8001F21F00101DA
:1020E00040E80012002AF5D12068143050E8001FA3
:1020F00021F0400140E80012002AF5D184F8423076
:10210000256320680C3050E8001F21F0100140E8E2
:102110000012002AF5D1E06BFEF7AAFF6663A08DDE
:10212000E18D401A81B22AE0A08DE18D401A81B282
:10213000E08D0028A6D00029A4D022680C3252E8F5
:10214000000F20F4907042E80007002FF5D12068BE
:10215000143050E8002F22F0010240E80027002F41
:10216000F5D184F84230256320680C3050E8002F08
:1021700022F0100240E80023002BF5D166632046D0
:10218000FFF707FFF8BDFFE705062BD5150629D594
:1021900094F841002128F5D1A068B0F5805F01D105
:1021A0002069B0B1206A411C216221680078486032
:1021B000E08C401E0004000CE084E3D12068C1687C
:1021C00021F08001C1602068C16841F04001C16018
:1021D000D8E7206A0088C0F308004860206A801CA5
:1021E0002062E5E74006CDD55006CBD5CA6820462B
:1021F00022F04002CA6084F8413000F0CFF9C1E714
:10220000C530000870B5040004D094F841000025E2
:1022100010B106E0012070BD84F84050204600F067
:1022200023F8242084F841002068C16821F400517B
:10223000C160204600F0D6FF2068016921F490417A
:1022400001612068416921F02A0141612068C1686B
:1022500041F40051C1606564202084F8410084F895
:1022600042006563002070BDF0B585B00024009485
:102270000194029403940368424F022042490322CE
:10228000424D4602BB4225D18B6943F480438B61AA
:102290008B6903F4804304938B6943F004038B61DF
:1022A0008969039201F0040104910102CDE9001053
:1022B00069462846FFF71CF8CDE9006469462846C0
:1022C0000294FFF715F8002205212520FFF7D8F921
:1022D000252028E02E4FBB4229D1CB6943F400339F
:1022E000CB61CB6903F4003304938B6943F004039F
:1022F0008B618969039201F0040104910421CDE905
:10230000001069462846FEF7F3FF0820CDE90004D7
:10231000694628460294FEF7EBFF0022052126209D
:10232000FFF7AEF92620FFF79DF905B0F0BD194D76
:10233000AB42FAD1CB6943F48023CB61CB6903F480
:10234000802304938B6943F008038B618969124DE4
:1023500001F00801CDE90321CDE900606946284676
:10236000FEF7C6FFE814CDE900046946284602944A
:10237000FEF7BEFF002205212720FFF781F9272065
:10238000D1E7000000380140001002400008014081
:102390000044004000480040000C014090F84230EA
:1023A000202B01D00220704721B11AB10023036312
:1023B00000F074BF012070472DE9F0410646006827
:1023C00047490025474C4FF00108884255D1E17A32
:1023D000207A30B1012809D002280BD0032846D139
:1023E00010E05A2943D184F8088040E0A5293DD166
:1023F000022005E06172C91E0D2937D8A57203209D
:10240000207234E0A27A3848102A02D28154521C39
:10241000A272D1B2627A914229D30C2A10D30178E8
:1024200083290DD1417859B98178102908D1C17912
:10243000007A4B1E062B00D82171172800D8E070B7
:10244000A079401C00F00307E07987420ED0A07904
:1024500000EB0011244844384254A17901EB0111EA
:1024600008442149401CFEF743F8A77125721D4915
:1024700001220B311D48FFF791FF1D49306888424A
:1024800021D1217BE0897F2800D3E581E089174AAB
:1024900048321318401CE08119707D290CD1E08965
:1024A0001554E2891149521C483101F18000FEF7B0
:1024B00064F884F80580E5810A490C4801220C3152
:1024C0004838FFF76BFF0B493068884205D10A484E
:1024D0000078BDE8F04100F005BABDE8F0810000E9
:1024E00000480040000000201C0300209001002054
:1024F0000044004000380140C00000202DE9F843AE
:10250000044690F84100984616460D46202802D011
:102510000220BDE8F88385B17EB1002060642120EF
:1025200084F84100FEF7DEFFA6848146E684A068B9
:102530002027B0F5805F02D003E00120E9E72069A1
:1025400010B12E4600250EE000260CE0802120462A
:1025500000F0BFFEA8B9C6B116F8010B21684860AB
:10256000E08C401EE084E08C4B464FF00002CDF83A
:1025700000800028EAD14FF04001204600F0A9FE7B
:1025800040B184F841700320C3E735F8020BC0F373
:102590000800E3E784F841700020BAE77047FEE7DF
:1025A0003EB5002410480094019402940D498460C3
:1025B000016004730475012505614FF460214460D6
:1025C000C161FEF79DFB08B172B6FEE7CDE900459B
:1025D000694605480294FEF711FB002801D072B647
:1025E000FEE73EBD00240140C40000202DE9F0417B
:1025F00086B00024294800940194029403948169D0
:1026000041F020018161816901F02001049181691B
:1026100041F004018161816901F004010491816943
:1026200041F00801816180691D4F00F008004FF4FE
:1026300081750490002229463846FEF74EFFDFF8E8
:1026400064800022F8214046FEF747FF0126CDE9CD
:102650000056022569463846CDE90245FEF748FE98
:10266000A80200901048CDE9010569463846FEF7FA
:102670003FFEF820CDE9000669464046CDE9024517
:10268000FEF736FE002205212820FEF7F9FF28205C
:10269000FEF7E8FF06B0BDE8F08100000010024040
:1026A00000080140000C014000003110FEE7FEE789
:1026B0004FF00008DFF8A8B16A4F6B4C4FF0010AE9
:1026C000C146E07860B14D4684F8039084F80190EB
:1026D00084F800A06421386801F0F8F810B108E02F
:1026E0003220B9E0614890F800800570386801F048
:1026F0004AF900F023F9642001F048F8A946A570D2
:102700005B490D70E58001F04EF8064632230E223B
:1027100058A15C48FFF7F2FE052001F037F85D464E
:1027200012E0A07868B184F8029057A15048FDF7F4
:1027300082FE002879D000F01DF901F034F8064639
:102740000BE00A2001F022F801F02DF8801BA842CE
:10275000E7D36AE0322001F019F801F024F8811B78
:1027600047F230508142F5D300F0E8F8642001F0E0
:102770000DF884F802903E4981F80090A4F8069084
:1027800001F011F8064632230E2242A13D48FFF720
:10279000B5FE052000F0FAFF01F005F8801BA84205
:1027A00043D2A07860B184F8029037A13048FDF799
:1027B00042FEB8B300F0DEF800F0F5FF064604E094
:1027C0000A20E7E7322000F0E1FF00F0ECFF811B78
:1027D0004CF250308142F5D300F0B0F8642000F0A4
:1027E000D5FF84F80290224981F80090A4F8069061
:1027F00000F0D9FF064632230F222AA12148FFF715
:102800007DFE052000F0C2FF00F0CDFF801BA84236
:102810000BD2A07838B184F802901BA11448FDF7C0
:102820000AFE20B901E00A20ECE784F801A000F0DC
:1028300085F86421386801F049F850B90B4880F8F0
:10284000008001F0ABFE1B4981F800A0386801F060
:102850009AF884F80090C82000F098FF31E7000053
:1028600020BF020024000020BC0000202C03002018
:102870007C380020736572766F5F7275636B73705E
:102880000D0A000000010020736572766F5F6F6BA8
:1028900000000000736572766F5F6B6C617273701D
:1028A0000D0A0000736572766F5F66696C746572FD
:1028B0006E0D0A000200002010B5012205490648ED
:1028C000FFF76CFDBDE81040044A0021044801F008
:1028D0007BB80000C00000200001002098600008C4
:1028E000B12600080F498A7862B90F4B0D280FD026
:1028F0000A280DD0CA881F2A04D2CA881344521C41
:10290000CA80187007490122091D0848FFF746BD13
:10291000CA8800201AB1CA88985401228A70C880D7
:10292000F0E70000BC0000207C38002000010020FF
:1029300001490120C8707047BC00002010B500227A
:102940004FF481710948FEF7C8FD0022D8210848DC
:10295000FEF7C3FD002145F2110002F01FF9BDE8AA
:102960001040002145F2130002F018B900080140A0
:10297000000C014070B5114C012211022046FEF7F7
:10298000ACFD0F4D012280212846FEF7A6FD002256
:1029900002212046FEF7A1FD002258212846FEF71D
:1029A0009CFD112145F2110002F0F8F8BDE87040DD
:1029B000002145F2130002F0F1B8000000080140C8
:1029C000000C014096B0002000270B900090FF20E3
:1029D0008DF83000FA2012974FF0FF0A3E46BB46B2
:1029E000B9461397109711970D9000F05DFD4FF4C5
:1029F000FA6000F0CBFECC4C607930B1002145F29A
:102A0000160002F0CBF8012704E0112145F2160070
:102A100002F0C4F8322000F0B9FEC34C45F20200C7
:102A2000617802F0BBF8322000F0B0FE217945F267
:102A3000260002F0B3F8322000F0A8FEA17A45F299
:102A4000250002F0ABF8322000F0A0FE21784FF410
:102A5000A04002F0A3F8322000F098FEA17845F2E1
:102A6000010002F09BF8322000F090FEA17945F2BF
:102A7000500002F093F8322000F088FE0122AB49AA
:102A8000A4F5CE70FFF78AFC642000F07FFE01F011
:102A900071FDC82000F07AFE00F085FEA4F5AA7151
:102AA0000F900122A1F19000FFF778FC9F4D0B3DA4
:102AB0009F48FEF74CFD00F076FE0F99411A4EF646
:102AC0006020814204D901F055FD00F06CFE0F90AA
:102AD000DFF854822C46A8F15408E079A1798842A5
:102AE00020D0E079112200EB001000EB080105A8CE
:102AF000FDF7FEFCE079401C00F00300E0719DF85A
:102B000014000528E9D39DF81500822801D08328F8
:102B1000E3D1BDF81600BDF8191040BA49BA00F06B
:102B200041FCDAE71421606A00F0D0FE20BB9DF87A
:102B30003000FF280CD07C494A788B78D31A834226
:102B400001DB0123CB71824205D80020C87102E06D
:102B500075480021C1717448C67890F805B090F8A6
:102B6000069001781191017A1391417A1291C079FE
:102B70001090606A00F007FF0EB1112100E0002103
:102B800045F2120002F00AF8564508D00EB11121A4
:102B900000E0002145F2120002F000F8B246BBF15D
:102BA000000F0FD0EFB9112145F2150001F0F6FF2B
:102BB000142000F0EBFD002145F2160001F0EEFFBD
:102BC00001270EE06FB1002145F2150001F0E6FF8C
:102BD000142000F0DBFD112145F2160001F0DEFFAC
:102BE0000027B9F1000F01D0012200E000222021CE
:102BF0005048FEF772FC4FF4AF720CA9206A02F045
:102C000033FA01280BD19DF830100D98814206D07F
:102C100045F2100001F0C2FF9DF830000D904648CB
:102C2000007800286BD1119828B1062807D0052814
:102C300007D00B9814E0002000900B9015E00120C5
:102C40000BE013980028FAD1129830B110980028A0
:102C5000F5D1009010980B9021E0009010980B9007
:102C600018B10098D8B1012000E0002080460098FB
:102C7000B8B1012280212F48FEF72FFC012211025A
:102C80002E48FEF72AFC012240212A48FEF725FCA7
:102C9000012202212948FEF720FC112117E04FF004
:102CA0000008002280212348FEF717FC00224FF481
:102CB00080712248FEF711FC002240211D48FEF7DA
:102CC0000CFC002202211D48FEF707FC002145F202
:102CD000110001F063FFB8F1000F06D001221021AE
:102CE0001448FEF7FAFB112105E0002210211148DB
:102CF000FEF7F3FB002145F2130001F04FFF60796E
:102D000068B13221606A00F0E1FD40B900206071D5
:102D10000548D43800F09EFE606A00F034FE4FF49F
:102D2000967000F033FDC3E62C0300200B0000205A
:102D3000F4000020000C0140BC000020000801400D
:102D4000CCB000202E4C2F4D8DF828014FF4FA7690
:102D500000231A464AA9286A00F05AFD1421686A1D
:102D600000F0B4FD002846D1207818B1052805D020
:102D7000062801D024A002E024A000E025A0A97824
:102D800009B126A700E027A7A1892279A37A09978C
:102D90000693CDE90721617909B120A100E021A1C5
:102DA000A2790AB121A200E017A2E3780BB11BA31C
:102DB00000E01CA3E7790FB118A700E019A7CDE93F
:102DC0000421CDE902736178CDE900109DF8283126
:102DD000174A4FF480710AA8FDF76AFA002807DD48
:102DE000FF2805D882B214230AA91248FFF786FBF0
:102DF000686A00F0C8FD304600F0C8FCA8E7000093
:102E00002C030020000000206F6666006D616E7567
:102E1000616C00006175746F00000000747275656C
:102E20000000000066616C73650000006F6E0000BA
:102E3000FC600008480100201CB5FF248DF800400C
:102E400002F07EFB0C4D4FF49676019001F02AFBC8
:102E50008DF80000FF2801D0042801D28DF8004031
:102E6000022300226946286A01F0D0FF314601A8FA
:102E700001F032FDEAE700000000002000252F46A7
:102E8000A9464FF4FA6000F081FC424E3221706A8C
:102E900000F01CFD404C70B94FF400613F48FEF754
:102EA00017FB050004D1607910B900F07CFC0746DF
:102EB000706A00F068FDDFF8E8B04FF000084FF0EE
:102EC000010A307840B186F800807078A84203D0BB
:102ED000054600F068FC07461421706A00F0F6FC15
:102EE00020BBFFB16079E8B900F05DFCC01B15B1F3
:102EF000012D1CD016E0A17A01EB4102C2EBC111F9
:102F0000B0EBC10F0BD3E07858B901220821584625
:102F1000FEF7E3FA84F803A000F045FC8146E07870
:102F200020B10027E07808B16079B0B12BE0A17A38
:102F300001EB4102C2EBC111B0EBC10FE07809D344
:102F40000028EED0002208215846FEF7C6FA84F881
:102F50000380E6E70028E4D0E6E700F024FC2179CE
:102F600040F25372A0EB09005143B0EB411F0AD36A
:102F7000002208215846FEF7B0FA84F8038084F84E
:102F800005A001F00BFB706A00F0FDFC642000F06E
:102F9000FDFB96E7000000202C0300200008014004
:102FA000000C014010B54FF0E020006902F0BAFAC1
:102FB000012803D0BDE8104001F062BE10BD30B55D
:102FC00093B028216846FDF712FB14210AA8FDF7EB
:102FD0000EFB00250F9509200121109500901195F9
:102FE00012954FF4803004910691CDE90105022439
:102FF000CDE907404FF4E01009906846FEF736FD32
:1030000008B172B6FEE70AA90F2081E831004FF43B
:103010008060CDE90D0502210AA8FEF72BFC08B15E
:1030200072B6FEE74FF4004011900F940FA8FEF720
:10303000ABFB002801D072B6FEE713B030BD70477D
:103040000148FEF700BF00003C030020F0B5026815
:10305000194B1A4C1A4D4FF08047984205D0B84290
:1030600003D0A04201D0A84203D122F070064A68E2
:103070003243984205D0B84203D0A04201D0A842C2
:1030800003D122F44074CA6822434C6922F08002C2
:10309000224302608A68C2620A688262984201D151
:1030A00009690163012141610169C90703D001690F
:1030B00021F001010161F0BD002C0140000400403D
:1030C0000008004010B5406A0021C185C184FEF7A8
:1030D00061FF10BD01680C3151E8002F22F490729D
:1030E00041E80023002BF5D10168143151E8002F8D
:1030F00022F0010241E80023002BF5D1016B0129E8
:1031000009D101680C3151E8002F22F0100241E88A
:103110000023002BF5D1202180F84210002101630B
:10312000704708B590F84210222901D0022008BD4E
:1031300082684FF480539A4201D1016921B1816ABA
:103140009A421BD04AB10AE00268816A5268C2F30F
:1031500008020A80816A891C08E0026972B102686B
:10316000526802F07F020A70816A491C8162C18D37
:10317000491E0904090CC18503D01BE0026852688E
:10318000F1E70168CA6822F02002CA600168CA68D3
:1031900022F48072CA6001684A6922F001024A6121
:1031A000202180F8421000214163026B012A03D0E4
:1031B000FFF702F9002008BD016301680C3151E8F6
:1031C000002F22F0100241E80023002BF5D1016806
:1031D0000A68D20602D50A6849680091818DFEF717
:1031E000D8FEE7E770B5044600680169E26821F49B
:1031F0004051114301612169A06808436169084396
:103200002168CA6841F20C639A430243CA6020688D
:103210004169A26921F44071114341611E4920684E
:10322000884202D1FEF7ECFB01E0FEF7D9FB00EB90
:10323000C00101EB0012606864218000B2FBF0F372
:10324000B3FBF1F36FF018067343B2FBF0F5B2FB7A
:10325000F0F605EB8305322303EB0515B5FBF1F51D
:10326000B6FBF1F605F0F00505EB0615B2FBF0F63E
:10327000B2FBF0F0B0FBF1F06FF01802504306EB38
:10328000800003EB0010B0FBF1F0216800F00F00AC
:103290002844886070BD000000380140816282854A
:1032A000C28500214164222180F84210016921B1C8
:1032B0000168CA6842F48072CA6001684A6942F0D3
:1032C00001024A610068C16841F02001C16000202C
:1032D00070472DE9F843984617460D460446089E68
:1032E00024E0701C22D0FEF7FDF8A0EB0800B042ED
:1032F0001AD8CEB12068C168490717D5802D15D0DE
:10330000402D13D00168C94309070FD40168002577
:10331000406800902046FFF7DDFE0820606484F8D6
:1033200040500120BDE8F8830320FBE720680068D7
:1033300035EA000004D00020B842D2D00020F1E7E6
:103340000120F9E70148FEF727BE00000001002038
:103350000148FEF721BE0000480100200148FEF7A9
:103360001BBE000090010020FEE70907090E00289F
:1033700004DB00F1E02080F80014704700F00F003B
:1033800000F1E02080F8141D704700214FF07E50BE
:1033900002F040BB012102F0BEBD0021084602F050
:1033A00039BB000070B5324D0C4606463221686AC2
:1033B00000F08CFA002859D145F22303F11A2D4A66
:1033C000E0B29E4249D00BDCB6F5A04F0FD06FF4AF
:1033D000A04171182CD0012910D0152938D12EE028
:1033E000022919D0032910D02D2931D11BE0062C38
:1033F0002ED8117881422BD0107025E0322C27D89E
:103400005178814224D050701EE03C2C20D8117994
:1034100081421DD0107117E0092C19D8917A814290
:1034200016D0907210E09179814211D090710BE02A
:103430000A2C0DD8917881420AD0907004E03CB1FA
:10344000507928B10020507101F0A8F80120A8702F
:10345000686ABDE8704000F096BA002CF8D00648C3
:1034600000780028F4D1FFF763FAF1E770BD00009F
:10347000000000202C030020BC0000200948052289
:103480001B2102704170022181700021C1700A234A
:10349000037141718171C1710172012343728272A2
:1034A000818170472C030020084910B50868401C32
:1034B00005D0BDE810400E220548FDF719B8FFF70A
:1034C000DDFFBDE8104001F069B8000000F8000819
:1034D0002C0300202DE9F0410026A0F50001B1F1F8
:1034E000FE4F7DD200F500226FF07E0101EBE2512C
:1034F000C2F3025477184FF07E52A0EBC15602EB94
:10350000045557EA040047D02946304602F01AFA1B
:1035100080462946304602F057FC414602F07AFACE
:103520000546014602F084FB8046454902F080FBD7
:10353000444902F007FA06464146284602F078FB65
:10354000314602F075FB0646384602F045FB074659
:103550003D4902F06DFB3D49794451F8241002F0D9
:10356000F1F9314602F0EEF906460121284602F053
:10357000D2FC314602F0E6F905463846344902F0FD
:1035800057FB3449794451F8241002F0DBF92946FD
:10359000BDE8F04102F0D6B94FF07E51304602F05E
:1035A00013FC05462C4902F043FB2C4902F0CAF9F2
:1035B000294602F03DFB2A4902F0C4F9294602F0EF
:1035C00037FB6FF0824102F0BDF9044629460846F8
:1035D00002F02EFB214602F02BFB0146284600E0BC
:1035E00003E0BDE8F04102F0ADB94FF07F42B2EB2D
:1035F000400F03D2BDE8F041FFF7CCBEB0F1FF4F62
:1036000008BFBDE8F081B0F1004F06D90120FDF7F9
:1036100022F8BDE8F041FFF7C0BE30F0004105D010
:103620006FF01606172102F076FC5BE70220FDF72B
:1036300012F8FFF7AAFE80F00040BDE8F08100001C
:1036400066F1CC3EAAAA2A3FF4FD0538802B000083
:103650000070313F342B000021ED423E0A1180BE44
:10366000C1ABAA3EFDF782FFFFF7A9FCFEF7BEFF44
:10367000FEF796FF3B483A494FF4E13600240160DB
:10368000C0E901640C25C460C0E904458461C461DB
:10369000FEF7B8FD08B172B6FEE7324832499038FD
:1036A0000160C0E90164C460C0E904458461C4618B
:1036B000FEF7A8FD08B172B6FEE72A482B49483844
:1036C0000160C0E90164C460C0E904458461C4616B
:1036D000FEF798FD08B172B6FEE7224824499C38EF
:1036E00001600621416040F6FF718160FDF700FF37
:1036F00008B172B6FEE7FFF7DFF800F05BF81D488F
:1037000000F00DF91C4C60621A48103000F007F907
:10371000184A0121A062183A084600F0ABF8154A91
:103720002062A83A0021154800F04EF9114A2061A4
:10373000843A0021124800F047F90E4A6061603A6D
:103740000021104800F040F90A4AA0613C3A0021EB
:103750000D4800F039F9E06100F03EF8FEE70000A6
:103760000048004090010020003801400044004023
:10377000003000403C60000800000020392E0008A6
:10378000C52900087D2E0008412D000810B5EFF373
:10379000058111B16FF0050403E0002408B101F0C8
:1037A00075F8204610BDEFF3058008B101F0CEBEDC
:1037B00001F0C6BEEFF3058010B16FF00500704751
:1037C0000448016811B14FF0FF30704701210160DA
:1037D000002070478C00002010B5EFF3058010B179
:1037E0006FF0050010BD08480168012902D04FF0B4
:1037F000FF3010BD054A002182F8141D022101602E
:1038000001F03AF9002010BD8C0000200BE000E030
:10381000F8B51D466FF003026FF002064FF000048A
:10382000EFF30583A3B1F0B1E9B1E5B9002200924D
:103830006A4601F0B5FC012817D10098B0B10C49D7
:103840004FF080500860BFF34F8FBFF36F8F0DE0D4
:1038500048B141B12A4601F007FC012806D025B144
:103860006FF0010402E0144600E034462046F8BD43
:1038700004ED00E0F8B514464FF00005EFF30582C3
:1038800012BB08B301B3A4B1D4E9023263B1502A28
:103890001AD32269C2B1676900FB01F6B74213D39C
:1038A000009501F03CFA07E072B9226962B96269D9
:1038B00052B9002201F012FA050005D00CB12168BE
:1038C00000E0002100F0ACFF2846F8BD2DE9F041F2
:1038D0000D46014621F0010001F001014FF0000406
:1038E000EFF305820AB1A41F16E048B100296FF07A
:1038F00001066FF00207294608D001F05BFD07E0E2
:103900006FF0030408E035B1344605E001F096FCA1
:103910000128F8D100E03C462046BDE8F08170B5B2
:1039200005464FF00004EFF3058050BB0DB1686809
:1039300000E00020C10701D0012600E000260007BA
:103940001FD46DB1D5E9021021B1502819D31EB191
:10395000042002E020B114E0012001F0B2F905E0FA
:103960000EB1042000E0012001F0A0F9040008D00D
:103970000DB1296800E0002100F052FF0EB144F0C3
:103980000104204670BD70B5014621F0010001F030
:1039900001014FF00004EFF305820AB1A41F11E00A
:1039A00028B16FF0020529B101F03FFB07E06FF08D
:1039B000030407E000231A46194601F027FA0128FC
:1039C00000D02C46204670BD2DE9FF414FEA01038F
:1039D0004FF00005EFF30581039549BB40B3802705
:1039E000182100244AB3166806B1344696691EB100
:1039F0003146761E382E02D21679F60703D0002003
:103A000004B0BDE8F081566906B1B708D2F808C025
:103A1000BCF1000F0DD0D5685C2D18D312693AB1F6
:103A200036B18DE806103A46214601F04AFD039072
:103A30000DE0D6685EB912694AB903AACDE9001251
:103A4000BAB2214601F010FD012800D00395039879
:103A5000D6E700002DE9F0478246002547A1FCF794
:103A6000EAFC494C002638B308308046032247A1BF
:103A7000FCF7F3FC4FF4A04760B1062244A1404696
:103A8000FCF7EBFC50B1042243A14046FCF7E5FCF7
:103A900048B111E0207878B1314608E02078062856
:103AA0000AD0062103E02078052805D005212170E1
:103AB000384601F073F8012539A15046FCF7BBFCEC
:103AC00040B309308146022238A1FCF7C6FCDFF87A
:103AD000E08045F2500730B103222CA14846FCF7A4
:103AE000BCFC50B116E0A079012813D00121A171CE
:103AF000384601F053F8012207E0A07950B1314671
:103B0000A671384601F04AF8002220214046FDF710
:103B1000E4FC012527A15046FCF78DFC70B10A306A
:103B2000FCF77CFCC1B2322908D86078884205D005
:103B3000617045F2020001F031F8012520A15046E4
:103B4000FCF779FC90B1123000E0401C017820298C
:103B5000FBD00929F9D00A29F7D00D29F5D0042284
:103B60001CA1FCF77AFC08B91C488670002D03D014
:103B7000BDE8F04700F012BDBDE8F087226D6F642C
:103B800065223A22000000002C0300206F666600C8
:103B90006D616E75616C00006175746F00000000EE
:103BA000226C69676874223A220000006F6E000080
:103BB000000C01402274656D70536574223A000058
:103BC0002269734E656564546F52656672657368E9
:103BD000223A0000747275650000000000000020A9
:103BE0002DE9F041134C0F460546E6682068001D9C
:103BF00000F016FD681C07D137B12168BDE8F0411F
:103C00000D48091D00F05DBD20683544B542456092
:103C1000216805D2A06BBDE8F041091D00F039BD57
:103C2000606B091D00F035FDA06A854200D2A562D7
:103C3000BDE8F0813C000020980800202DE9F0410B
:103C4000054600F04BFD2D4CA068401CA06020688C
:103C50002B4F10B1606930B32BE02560A0680128BC
:103C600027D1002606EB860007EB800000F003FD5D
:103C7000761C382EF6D3234800F0FDFC2148143082
:103C800000F0F9FC1F48283000F0F5FC1D483C30DE
:103C900000F0F1FC1B48503000F0EDFC1948606367
:103CA0001430A06305E02068E96AC06A884200D841
:103CB0002560606A401C60626864E86A2169884225
:103CC00000D9206100EB800007EB8000291D00F087
:103CD000F8FC00F023FD606900280CD02068E96A38
:103CE000C06A884207D208494FF080500860BFF38D
:103CF0004F8FBFF36F8FBDE8F08100003C000020C4
:103D0000E80300204808002004ED00E038B500F08A
:103D1000E5FC104C2068C8B90F4800F0ACFC0E4818
:103D2000143000F0A8FC0C48E060143020610A4B0D
:103D30000020F03B009003F1500210210A2000F017
:103D4000EEFF206010B105A100F06AFDBDE838402B
:103D500000F0E4BC780000209C090020546D7251F2
:103D60000000000030B4026C0B46002A0BD0C16882
:103D70001144C1608468A14201D30168C16030BCB4
:103D80001846FCF7B5BB30BC70472DE9F041856B98
:103D9000174604460026026C82B1C7B1E068FCF702
:103DA000A7FBE168206C091AE1602268914202D207
:103DB000A168081AE060022F16D017E02068A8B9A1
:103DC000A06801F02FFC06460020A0600EE06068AD
:103DD000FCF78EFB216C606808446060A168884233
:103DE00004D32068606001E005B16D1E6D1CA56301
:103DF0003046BDE8F08110B5044690F8590058B13E
:103E000001280CD002280FD0502080F31188BFF376
:103E10004F8FBFF36F8FFEE7206B00F093FC2046BF
:103E2000BDE8104000F08EBC10BD000010484FF4FB
:103E30002051420706D0C01D0D4920F00700411A4D
:103E4000C1F520510B4A00230144C2E9000308399F
:103E5000183A21F0070111604B600B600B1AC0E9A2
:103E6000001393604FF000405360506170470000B2
:103E70007C100020A8000020144E154CA6F29C4790
:103E80004FF08058DFF84C9012E000BF00F026FCA5
:103E9000F068C568281D00F0C3FBA068401EA06044
:103EA0006068401E606000F039FC2846FFF7A3FF01
:103EB00060680028EAD138680128F9D9C9F800807B
:103EC000BFF34F8FBFF36F8FF2E70000840800202D
:103ED0003C00002004ED00E0002807D000218160B4
:103EE00001600B460A46C16000F090BF70470000B9
:103EF00070B51D46049C51B1C4F80020C4E90F01FF
:103F00000121204600F03EFF84F84C5070BD246033
:103F1000F4E700002DE9F05F8846DDE90B941546D3
:103F2000834691009A460A9EA522206BFCF757FB18
:103F30006FF00301206B01EB8501084420F00707B7
:103F4000780707D0502080F31188BFF34F8FBFF35D
:103F50006F8FFEE70025B8F1000F0FD05FF0000073
:103F6000221818F8001082F8341018F8001011B157
:103F7000401C1028F4D384F8435001E084F83450F6
:103F8000382E00D33726E662C4E91365201D00F001
:103F90007DFB04F1180000F079FB2461C6F13800C4
:103FA0006462A061656584F85850524659463846A7
:103FB00000F066FA2060B9F1000F01D0C9F80040A6
:103FC000BDE8F09F30B5114900E011460A68824211
:103FD000FBD34B685C18844203D1406818444860A6
:103FE000084643681C18944209D1084C183C2468C0
:103FF000A24209D052681A4442600A6812680260FC
:10400000814200D0086030BD0460F9E7A8000020BC
:1040100070B5002441600B4D0061914206D8D11A61
:104020008269914206D2011D286907E09A4203D2B3
:10403000994201D3012403E0011DE86800F029FB47
:10404000204670BD7800002010B5044600F046FB05
:10405000A06B28B15FF0000400F060FB204610BDAB
:104060000124F9E730B589B03C4D6EE00498002892
:1040700006DADDE90601059A90470498002864DB1A
:10408000069C606910B1201D00F0CAFA03A800F078
:10409000D7F8024604980A2857D2DFE800F0050551
:1040A000052D334A05052D3394F8280040F0010012
:1040B00084F828000599A069059B01442046FFF774
:1040C000A7FF68B3216A2046884794F82800400774
:1040D0003BD5002000900598A1690023421819469D
:1040E000204601F0E5FBD8B9502080F31188BFF3DA
:1040F0004F8FBFF36F8FFEE714F8280F20F00100F9
:10410000207022E094F8280040F0010084F8280094
:104110000598A06128B1811813462046FFF778FF63
:1041200013E0502080F31188BFF34F8FBFF36F8FE0
:10413000FEE794F82800810703D4204600F002FB34
:1041400003E020F0010084F82800002204A9286878
:1041500000F08AFF002889D109B030BD7800002026
:104160002DE9FC410F46054600F0CAFC01A800F00D
:1041700067F80446019818B101F008FBBDE8FC811E
:10418000254EAFB130690068D0B30027291B3A46ED
:10419000306800F059FB01F0F9FA0028EED11F4910
:1041A0004FF080500860BFF34F8FBFF36F8FE5E78C
:1041B000A542EBD801F0EAFAF0682746C068C46867
:1041C000201D00F02DFA94F82800410719D5A069A8
:1041D0002B4641193A462046FFF71AFFA8B10020A6
:1041E0000346014600902A46204601F061FB60B973
:1041F000502080F31188BFF34F8FBFF36F8FFEE71E
:1042000007E020F0010084F82800216A2046884752
:10421000B4E70127BAE700007800002004ED00E0D1
:104220000648416B096829B1416BC968C96849688A
:10423000816270474FF0FF31FAE700003C00002038
:1042400070B5054601F07CF9064E0446B06884421C
:1042500003D200F009F8012000E000202860204689
:10426000B46070BD78000020F8B5194D20E0C0683A
:10427000C4680668201D00F0D3F9216A20468847EB
:1042800094F82800400713D5A0693044B04206D9FD
:1042900024616060211DE86800F0FBF908E000205F
:1042A0000346014600903246204601F001FB38B13A
:1042B000E86801680029DAD12969C5E90310F8BD69
:1042C000502080F31188BFF34F8FBFF36F8FFEE74D
:1042D0007800002008484068401C4FF0500080F3F0
:1042E000118804D0BFF34F8FBFF36F8FFEE7BFF38A
:1042F0004F8FBFF36F8FFEE7B0000020074CE068E0
:10430000016841B1C0680021D0F80000FFF728FF24
:10431000FFF7A8FEF3E701210020F7E7780000206F
:104320002DE9F041044600F0D9F994F9455004F123
:10433000240609E0606A48B1304601F0EFF908B19F
:1043400000F018FB6D1E6DB2002DF3DC4FF0FF3650
:1043500084F8456000F0E2F900F0C0F994F94450A7
:1043600004F1100709E0206948B1384601F0D6F998
:1043700008B100F0FFFA6D1E6DB2002DF3DC84F879
:104380004460BDE8F04100F0C9B900002DE9F041FA
:104390000546002700F0B4FB324E306808B9FFF73D
:1043A00045FD706905424ED1C5B3083568070ED08A
:1043B00005F00700C0F108000544680707D0502049
:1043C00080F31188BFF34F8FBFF36F8FFEE72DB3DC
:1043D0007068854237D82348183001460C6801E0E0
:1043E00020460C466168A94202D221680029F7D113
:1043F00031688C4227D007682168016060680837FF
:10440000411B10290FD96019420708D0502080F3B2
:104410001188BFF34F8FBFF36F8FFEE713E041604A
:104420006560FFF7CFFD61687068401A7060B26820
:10443000904200D2B060706901430020C4E90001DD
:10444000F068401CF06001F0A1F9780707D0502017
:1044500080F31188BFF34F8FBFF36F8FFEE73846AD
:10446000BDE8F081900000200449086818B1086890
:10447000026D521C02650868704700003C00002075
:1044800010B5031F4FF080741C601B1F21F0010149
:104490001960191F024B0B60143940380A6010BDB7
:1044A000D542000870B52948FCF782FD0A2127484B
:1044B000FCF7E0FCC0BB2548FCF71EFC01F0A4FBA8
:1044C000234D294601F0B4FB224901F0A3FA04462A
:1044D0002149A0F50000884226D22146284601F055
:1044E00073FC1E4E05463146204601F0A1FB2946CD
:1044F00001F090FA1A4C314601F08CFAFEF7EAFF0F
:10450000214601F087FA174901F01CFA01464FF0E5
:104510007E5001F07FFA144901F056FC134CA04282
:1045200002D21349884201DDFF2070BD4FF04045A3
:104530004FF07C5101F006FA294601F003FAA0423F
:1045400000D3002001F028FBC0B270BDC4000020E1
:104550003333534000F07F453333D33F00401C4694
:1045600000E076450FCF5B3B3393884300008080AB
:10457000000070421CB506A11423D1E90001CDE969
:104580000001072269460448FDF7B8FF1CBD000082
:104590005AA5048300100400900100202DE9F04189
:1045A000DFF86C8086B09621D8F82800FFF78EF9E6
:1045B00000282AD1FCF76AFE16498889401C8881A8
:1045C00015493420C8600020009001900490134DDC
:1045D0000120CDE9025004A96846FCF7B9FD70B985
:1045E0000C4E04275FF0000405EB840156F82420EC
:1045F00000230220FCF70AFE641CBC42F4D3FCF743
:10460000FBFDD8F82800FFF7BEF906B0BDE8F08141
:10461000000000202C0300200020024000F80008C9
:10462000D0E9013201699A60D0E901235A604A68F1
:10463000824201D182684A60002202610868401EFD
:104640000860086870470000034B036003F15C00DA
:104650000860802010607047C4090020044B03608C
:1046600003F15C0008604FF4807010607047000038
:10467000200C0020704700F108014FF0FF32C0E924
:104680000112C160016100210160704700210161D8
:10469000704730B50B685A1C02D000F1080202E0E6
:1046A000026904E02246546825689D42FAD953689D
:1046B0004B6099608A60516008610168491C016023
:1046C00030BD42684A6093688B609368596091601E
:1046D00008610168491C016070470000502080F3A8
:1046E0001188BFF34F8FBFF36F8F0A494868401C92
:1046F000486001280CD10848006810F0FF0F07D06F
:10470000502080F31188BFF34F8FBFF36F8FFEE708
:1047100070470000B000002004ED00E00849486840
:1047200028B1401E486001D180F3118870475020A5
:1047300080F31188BFF34F8FBFF36F8FFEE7000048
:10474000B000002070B500282AD0164DA0F1080452
:1047500060686969084207D1502080F31188BFF36F
:104760004F8FBFF36F8FFEE722683AB1502080F37E
:104770001188BFF34F8FBFF36F8FFEE788436060F0
:1047800000F0BEF960686968084468602046FFF779
:1047900019FC2869401C2861BDE8704000F0F6BF94
:1047A00070BD0000900000204FF0E020002101616A
:1047B000816105494FF47A720968B1FBF2F1491E33
:1047C00041610721016170473800002010B5FBF7F7
:1047D00037FD114910280ED300F1E02090F8F003C6
:1047E0000A78904207D2502080F31188BFF34F8F90
:1047F000BFF36F8FFEE709480068896800F4E06046
:10480000884207D9502080F31188BFF34F8FBFF340
:104810006F8FFEE710BD0000B00000200CED00E03F
:1048200010B5084B002200BF53F832401CB1521C97
:10483000082AF9D310BD43F8321003EBC2014860D7
:1048400010BD0000A803002070B515460E460446B2
:10485000FFF744FF94F944100020491C01D184F86B
:10486000440094F94510491C01D184F84500FFF734
:1048700055FFA06B28B92A46314604F1240000F008
:1048800097F82046BDE87040FFF74ABD10B502001A
:1048900014D00F48006B38B1502080F31188BFF35B
:1048A0004F8FBFF36F8FFEE700F02AF9002110460B
:1048B000FFF796F900F06AFF002807D105494FF08D
:1048C00080500860BFF34F8FBFF36F8F10BD0000A3
:1048D0003C00002004ED00E070B50D4604000BD054
:1048E00095B11E4A106BB8B1502080F31188BFF308
:1048F0004F8FBFF36F8FFEE7502080F31188BFF317
:104900004F8FBFF36F8FFEE7502080F31188BFF306
:104910004F8FBFF36F8FFEE700F0F2F8D268236885
:104920005919934204D98B420AD9914202D807E01F
:104930008B42FAD9881A21600021FFF751F900E073
:10494000216000F023FF002807D105494FF0805077
:104950000860BFF34F8FBFF36F8F70BD3C00002026
:1049600004ED00E002490A6A0260C96841607047CC
:104970003C00002001490120C86170473C00002034
:1049800010B50C4650B1094909681831FFF781FE8E
:104990002046BDE810400121FFF722B9502080F3E6
:1049A0001188BFF34F8FBFF36F8FFEE73C000020ED
:1049B00070B514460D4668B10A4909681831FFF709
:1049C00080FE0CB14FF0FF3521462846BDE870400F
:1049D000FFF706B9502080F31188BFF34F8FBFF364
:1049E0006F8FFEE73C00002070B504003ED0226DC2
:1049F000A2B1E06C884200D30146E06A884235D01B
:104A0000012A33D11A4D2A6894420FD1502080F3E5
:104A10001188BFF34F8FBFF36F8FFEE7502080F3F5
:104A20001188BFF34F8FBFF36F8FFEE7E162A2697A
:104A3000002A02DBC1F13801A1610E4E00EB8000BB
:104A4000616906EB8000814210D1201DFFF7E8FD6F
:104A5000E06A2969884200D9286100EB800006EBF2
:104A60008000211DBDE87040FFF72BBE70BD000027
:104A70003C000020E803002030B587B000240394F8
:104A800005AA04A903A80494FFF7DEFDDDE90301EC
:104A90000094CDE90110002315A11748059A00F0F4
:104AA00010FD164D0028E8621FD000F0D1FE01284D
:104AB00009D0401C19D1502080F31188BFF34F8FCB
:104AC000BFF36F8FFEE7502080F31188BFF34F8F45
:104AD000BFF36F8F4FF0FF30A86201206861EC6078
:104AE00007B0BDE8304000F077B807B030BD000037
:104AF00049444C4500000000793E00083C0000207D
:104B00000248016B491C0163704700003C00002013
:104B100010B5204C206B10B10120E06110BD0020C9
:104B2000E06120684FF0A531006B02688A4208D12D
:104B300042688A4205D182688A4202D1C0688842AE
:104B400004D0216820683431FFF794FD20691249B0
:104B500001E0B8B1401E00EB800251F82220002A8B
:104B6000F7D000EB800201EB820101F108034A68F3
:104B700052684A609A4201D152684A60D168216005
:104B8000206110BD502080F31188BFF34F8FBFF319
:104B90006F8FFEE73C000020E80300201CB50BA34C
:104BA000D3E90023CDE90023020A8DF804208DF813
:104BB0000500080A8DF806008DF807101423082256
:104BC00069460448FDF79AFC1CBD00005AA5058201
:104BD00000000000900100201CB5264908780190D3
:104BE000FF20087008788DF800009DF800009DF8FF
:104BF000002000F0F000904207D0502080F3118890
:104C0000BFF34F8FBFF36F8FFEE79DF800001A4C84
:104C100000F0500020700720A06005E09DF8002003
:104C200052008DF80020401E9DF800201206F5D499
:104C3000A060032807D0502080F31188BFF34F8F66
:104C4000BFF36F8FFEE74FF44070A06001980870CB
:104C50000A48016841F470010160016841F0704147
:104C60000160FFF7A1FD00206060FBF7B3FA0020B0
:104C70001CBD000000E400E0B000002020ED00E0DA
:104C800010B5502080F31188BFF34F8FBFF36F8FA3
:104C900000F064FC18B104494FF080500860002017
:104CA00080F3118810BD000004ED00E010B502464D
:104CB0000021012000F012F80446FFF70DF920460C
:104CC00010BD38B50B46002200901146012000F0BF
:104CD00026F80446FFF700F9204638BDF8B5174618
:104CE0000E46050013D005FB06F05030FFF74EFBD3
:104CF00004000AD0002084F8460004F150023B462C
:104D0000314628460094FFF7F3F82046F8BD5020BE
:104D100080F31188BFF34F8FBFF36F8FFEE738B575
:104D2000049D18B153B1CAB181B120E0502080F385
:104D30001188BFF34F8FBFF36F8FFEE7502080F3D2
:104D40001188BFF34F8FBFF36F8FFEE7502080F3C2
:104D50001188BFF34F8FBFF36F8FFEE739B150203B
:104D600080F31188BFF34F8FBFF36F8FFEE750249E
:104D70001C46012384F846302B460094FFF7B8F810
:104D8000204638BD70B50D46040025D0FFF7A6FCBF
:104D9000D4E90F20216802FB0011A1600021A1636A
:104DA000216861600A46D4E90F01401E00FB012121
:104DB000E16021464FF0FF3001F8440F487004F1E4
:104DC00010008DB1FFF757FC04F12400FFF753FCEE
:104DD000FFF7A4FC012070BD502080F31188BFF3C1
:104DE0004F8FBFF36F8FFEE721690029F0D000F0ED
:104DF00095FC0028ECD004494FF080500860BFF3C8
:104E00004F8FBFF36F8FE3E704ED00E02DE9FF471D
:104E100082B01D468A464FF00008040003D0BAF164
:104E2000000F08D011E0502080F31188BFF34F8F9E
:104E3000BFF36F8FFEE7206C38B1502080F31188EC
:104E4000BFF34F8FBFF36F8FFEE7022D0AD1E06BE8
:104E5000012807D0502080F31188BFF34F8FBFF394
:104E60006F8FFEE700F05EFB3F4F4FF000094FF001
:104E7000805648B9049838B1502080F31188BFF3A8
:104E80004F8FBFF36F8FFEE7FFF728FCA06BE16B3E
:104E9000884207D3022D05D00498D0B1B8F1000F95
:104EA0001AD01EE02A4651462046FEF76EFF616A80
:104EB00019B104F1240000F031FC20B13E60BFF3D1
:104EC0004F8FBFF36F8FFFF729FC012006B0BDE8BD
:104ED000F087FFF723FC22E06846FFF743FD4FF021
:104EE0000108FFF71BFCFFF70BFEFFF7F7FB94F938
:104EF0004400401C01D184F8449094F94500401CC2
:104F000001D184F84590FFF709FC04A9684600F038
:104F100071FA30B12046FFF703FA00F037FC0020A9
:104F2000D4E7FFF7DBFBA06BE16B884213D1FFF7FF
:104F3000F5FB04F110000499FFF722FD2046FFF76E
:104F4000EFF900F023FC00289ED13E60BFF34F8FA5
:104F5000BFF36F8F98E7FFF7E1FB2046FFF7E0F91B
:104F600000F014FC90E7000004ED00E02DE9F047AC
:104F70001F4690468946040003D0B9F1000F08D0BF
:104F800011E0502080F31188BFF34F8FBFF36F8F74
:104F9000FEE7206C38B1502080F31188BFF34F8FAB
:104FA000BFF36F8FFEE7022F0AD1E06B012807D015
:104FB000502080F31188BFF34F8FBFF36F8FFEE750
:104FC000FFF704FC5020EFF3118680F31188BFF344
:104FD0004F8FBFF36F8FA06BE16B884206D3022F18
:104FE00004D0002086F31188BDE8F08794F945507D
:104FF000A06B3A4649462046FEF7C7FE681C04D01F
:105000006D1C84F845500120ECE7606A0028FAD056
:1050100004F1240000F082FB0028F4D0B8F1000F66
:10502000F1D00121C8F80010EDE710B5040009D057
:1050300000F072FAA168884214D1E068401EE06076
:1050400008D00DE0502080F31188BFF34F8FBFF3DD
:105050006F8FFEE700231A4619462046FFF7D6FE5B
:10506000012010BD002010BD2DE9F747002683B0B8
:105070008A46040003D0BAF1000F08D011E0502096
:1050800080F31188BFF34F8FBFF36F8FFEE7206C63
:1050900038B1502080F31188BFF34F8FBFF36F8F6B
:1050A000FEE700F03FFADFF8F4804FF000094FF020
:1050B000805748B9059838B1502080F31188BFF364
:1050C0004F8FBFF36F8FFEE7FFF708FBA56BC5B1EE
:1050D00051462046FEF746FE6D1EA563206950B17D
:1050E00004F1100000F01AFB28B1C8F80070BFF3FB
:1050F0004F8FBFF36F8FFFF711FB012006B0BDE8A4
:10510000F087059808B11EB106E0FFF707FB27E01E
:105110006846FFF727FC0126FFF700FBFFF7F0FCCE
:10512000FFF7DCFA94F94400401C01D184F8449064
:1051300094F94500401C01D184F84590FFF7EEFA40
:1051400005A9684600F056F9002820460AD0FFF766
:10515000E7F800F01BFB2046FEF776FF0028B3D0EF
:105160000020CBE7FEF770FF90B104F12400059911
:10517000FFF706FC2046FFF7D3F800F007FB0028F6
:10518000A2D1C8F80070BFF34F8FBFF36F8F9BE7BA
:105190002046FFF7C5F800F0F9FA95E704ED00E0C6
:1051A0002DE9F04790468946040003D0B9F1000F7D
:1051B00008D011E0502080F31188BFF34F8FBFF368
:1051C0006F8FFEE7206C38B1502080F31188BFF359
:1051D0004F8FBFF36F8FFEE7FFF7F8FA5020EFF322
:1051E000118680F31188BFF34F8FBFF36F8FA76BCA
:1051F000F7B194F9445049462046FEF7B3FD7F1EAF
:10520000A763681C04D06D1C84F84450012010E092
:1052100020690028FAD004F1100000F07FFA00287D
:10522000F4D0B8F1000FF1D00121C8F80010EDE77B
:10523000002086F31188BDE8F08700002DE9F343D4
:10524000002683B00400354609D0206C78B1502088
:1052500080F31188BFF34F8FBFF36F8FFEE75020AD
:1052600080F31188BFF34F8FBFF36F8FFEE700F01D
:1052700059F9DFF83C814FF000094FF0805748B9E9
:10528000049838B1502080F31188BFF34F8FBFF3DB
:105290006F8FFEE7FFF722FAA06BC8B1401EA06334
:1052A000206810B9FFF7E0F8A060206950B104F160
:1052B000100000F033FA28B1C8F80070BFF34F8F28
:1052C000BFF36F8FFFF72AFA012005B0BDE8F08326
:1052D000049808B166B10FE03DB1502080F3118809
:1052E000BFF34F8FBFF36F8FFEE7FFF717FA5DE055
:1052F0006846FFF737FB0126FFF710FAFFF700FCBF
:10530000FFF7ECF994F94400401C01D184F8449073
:1053100094F94500401C01D184F84590FFF7FEF94F
:1053200004A9684600F066F80028204612D0FEF76F
:10533000F7FF00F02BFA2046FEF786FE0028A9D0E2
:105340009DB3FFF7CBF9606A50B3206B0068C0F1E2
:10535000380126E0FEF778FEE0B1206838B9FFF7A3
:10536000BDF9A06800F09EF90546FFF7D7F904F1F2
:1053700024000499FFF704FB2046FEF7D1FF00F05C
:1053800005FA002886D1C8F80070BFF34F8FBFF32D
:105390006F8F7FE72046FEF7C3FF00F0F7F979E74C
:1053A0000021A068FFF720FB9FE7FFE700208CE7C4
:1053B00004ED00E070B50D46040009D000F0ACF833
:1053C000A16888420CD1E068401CE060012070BDFB
:1053D000502080F31188BFF34F8FBFF36F8FFEE72C
:1053E00029462046FFF72AFF0028F0D0E168491C33
:1053F000E16070BD2DE9F0410C46050011D0C4B14B
:10540000FFF76CF9174BDA686E682068911B471C30
:1054100017D02F681B6A9F4219D0964217D80124D3
:1054200010E0502080F31188BFF34F8FBFF36F8FD0
:10543000FEE7502080F31188BFF34F8FBFF36F8FCB
:10544000FEE70024FFF76AF92046BDE8F0818842B4
:1054500005D9401A20602846FFF784FAF1E70020BA
:105460002060DCE73C0000202DE9FF5F8346DDE99A
:105470000E87994616468A469000FEF787FF05007C
:105480001CD05C20FEF782FF040014D000202563AE
:1054900084F85900CDE90240CDE900874B463246F9
:1054A00051465846FEF736FD2046FEF7C7FB012061
:1054B00004B0BDE8F09F2846FFF744F94FF0FF30F5
:1054C000F6E7F0B585B0DDE90B640A9DA6B1DCB165
:1054D0005C2700972663022684F85960002604AFF3
:1054E000CDE90246CDE90057FEF714FD2046FEF750
:1054F000A5FB049805B0F0BD502080F31188BFF3E0
:105500004F8FBFF36F8FFEE7502080F31188BFF3FA
:105510004F8FBFF36F8FFEE70148006870470000B0
:105520003C0000200548416919B1006B18B100200A
:105530007047012070470220704700003C000020A7
:105540000148C068704700003C00002010B5FFF71C
:105550003DF90148C06810BD3C0000202DE9F04134
:105560002E4C0027206B28B1A069401CA061384652
:10557000BDE8F081E668761CE66013D1606B0068D8
:1055800038B1502080F31188BFF34F8FBFF36F8F76
:10559000FEE7606BA16B6163A063206A401C206220
:1055A000FEF73EFEA06ADFF87880864209D3606B82
:1055B0000068A0B1606BC068C5686868864211D297
:1055C000A0622068C06A00EB800158F82100012821
:1055D00000D90127E0690028C9D00127C7E74FF0AB
:1055E000FF30EDE7281DFFF71BF8A86A18B105F199
:1055F0001800FFF715F8E86A2169884200D9206190
:1056000000EB800108EB8100291DFFF75AF8E86ADA
:105610002168C96A8842CAD30127C8E73C00002034
:10562000E803002070B504004FF0000133D01B4D9B
:105630002868844207D0502080F31188BFF34F8F31
:10564000BFF36F8FFEE7206D38B1401E2065E36C1D
:10565000E26A9A421FD040B11DE0502080F31188C9
:10566000BFF34F8FBFF36F8FFEE7201DFEF7D8FF0C
:10567000E06CE062C0F13800A061E06A296988420C
:1056800000D92861064900EB800001EB8000211D54
:10569000FFF717F80121084670BD00003C0000200C
:1056A000E803002070B504004FF000002BD0194D26
:1056B000E16A2A68D26A914226D2A069002804DBF6
:1056C0002868C06AC0F13800A061134E01EB810167
:1056D000606906EB8101884211D1201DFEF7A0FF11
:1056E0002868C06AE0622969884200D9286100EB15
:1056F000800006EB8000211DFEF7E3FF02E0286832
:10570000C06AE062012070BDE16C2A68D26A9142F1
:10571000F8D370BD3C000020E803002070B5C068DD
:10572000C46854B104F118000646FEF779FF144D21
:10573000286B50B13146134815E0502080F3118892
:10574000BFF34F8FBFF36F8FFEE7201DFEF768FF9B
:10575000E06A2969884200D928610B4900EB800082
:1057600001EB8000211DFEF7ACFFE06A2968C96AE1
:10577000884202D90120E86170BD002070BD0000A0
:105780003C00002070080020E80300202DE9F047CD
:105790002C4D00242746286B38B1FEF79FFF286B5D
:1057A000401E2863286B40B146E0502080F31188EA
:1057B000BFF34F8FBFF36F8FFEE7A968224E012022
:1057C000D1B3A6F5916980463068E0B1F068C4684D
:1057D00004F11800FEF724FF201DFEF721FFE06A08
:1057E0002969884200D9286100EB800109EB81001A
:1057F000211DFEF766FFE06A2968C96A8842E3D383
:10580000C5F81C80E0E70CB1FEF70AFDAC694CB1AD
:105810004FEA0806FFF7A2FE00B1EE61641EF9D15F
:105820000020A861E86938B10849012738070860F5
:10583000BFF34F8FBFF36F8FFEF770FF3846BDE8A1
:10584000F08700003C0000207008002004ED00E01C
:1058500010B586B0FEF75AFA114C2068B8B1002096
:105860000390049005AA04A903A8FEF7F7FEDDE95A
:10587000032102208DE8070000230AA10B48059AA6
:10588000FFF71FFE606010B106B0012010BD502070
:1058900080F31188BFF34F8FBFF36F8FFEE70000D7
:1058A00078000020546D722053766300FD4200089A
:1058B0002DE9FF411E46134602000A9D4FF00000ED
:1058C00016D0144C2768002F0FD0CDE90013029298
:1058D000062917DAFFF726FE02284FF000030FD043
:1058E000002269462068FFF791FA04B0BDE8F08114
:1058F000502080F31188BFF34F8FBFF36F8FFEE707
:105900002A46EEE70023324669463846FFF72EFB6B
:10591000EBE700007800002010B500290AD00878D5
:10592000002807D005487844FBF726F8002801D066
:10593000002010BD0248784410BD00001A09000084
:105940001209000090EA010F48BF81F0004100F108
:105950004282421A3CBF801A89184FEAD0524FF057
:105960007F4C1CEA410FA2EBD15318BF9CEA026F97
:1059700000F03B804FF0004C4CEA00204CEA012143
:1059800021FA03FC10EB0C0C1ED202F1FF325FEA8D
:105990001C2040EBC25038BF70471CF07F0F4FEA0D
:1059A000400C18BFBCF17F4F38BF7047C3F12003D4
:1059B000994008BF20F00100BCF17F4F38BF70470D
:1059C000A0F1C04000F0FBB94FEA3C00000A40EBF8
:1059D000C25028BF1CF0FF0F4FEA400CE6D018BFA2
:1059E000BCF17F4F38BF7047EAE79CEA026F05D0F1
:1059F00010EA5C0F08BF00F00040704710B500F0DF
:105A000098F900BF64FBBE3E014800F052BA00BFE7
:105A10000000C07F4FF47F0C1CEAD0121EBF1CEAAE
:105A2000D11392EA0C0F93EA0C0F00F0858090EAF4
:105A3000010F48BF42F4807240F4000C41F40000B2
:105A40002CF07F4120F07F4000B58142A2EB0302A1
:105A50000FF2081CACEB504EC0F100009EF800E0C5
:105A60004FEA4E0E00FB0EFC38BF49004FEA2C1CDB
:105A700002F5FA020CFB0EF34FEACE1E4FEA112C90
:105A80004FEAC1210EEB635E42EB22420EFB0CFC9F
:105A90004FEA1C5300FB03114FEA112C4FEA01316E
:105AA0000EFB0CFC4FEADC4C00FB0C11C14228BF82
:105AB00009184CEB03335DF804EB10EB410143EBA9
:105AC000C250B2F57C0F38BF704729D512F0F00FE5
:105AD0001CBF00F1C04000F000407047008182838D
